{"abi":[{"type":"function","name":"verifyProof","inputs":[{"name":"_pA","type":"uint256[2]","internalType":"uint256[2]"},{"name":"_pB","type":"uint256[2][2]","internalType":"uint256[2][2]"},{"name":"_pC","type":"uint256[2]","internalType":"uint256[2]"},{"name":"_pubSignals","type":"uint256[6]","internalType":"uint256[6]"}],"outputs":[{"name":"","type":"bool","internalType":"bool"}],"stateMutability":"view"}],"bytecode":{"object":"0x6080604052348015600e575f80fd5b506107198061001c5f395ff3fe608060405234801561000f575f80fd5b5060043610610029575f3560e01c8063f398789b1461002d575b5f80fd5b61004061003b366004610681565b610054565b604051901515815260200160405180910390f35b5f6105fc565b7f30644e72e131a029b85045b68181585d2833e84879b9709143e1f593f00000018110610089575f805260205ff35b50565b5f60405183815284602082015285604082015260408160608360076107d05a03fa9150816100bc575f805260205ff35b825160408201526020830151606082015260408360808360066107d05a03fa915050806100eb575f805260205ff35b5050505050565b7f306009325cc448fd894e8e2e475b6dcaa5039ff45214b91a280082dbebc322f785527f0c2ed52a2a1e4330c3b9b48e813ee674577fed1eec6508faec0db330c8ccfe2160208601525f608086018661018e87357f29f8965df7a7e43043bb47782357f7c03bc3c8b88b5454164750a106cf55718b7f284f9478f6e275dc54fd4233b77f88e18a4199b50c42aad3a4fe741200feab418461008c565b6101de60208801357f166caaac6cff107434a6ecc457431dd00c50b498f4e21b99767f8620f8061e427f217f0c299e4f14175e9d06d279957c9bda399e59a659212157b89d70725adfe48461008c565b61022e60408801357f01b22a2afeb0d705457e12be752c93eef1dfeff6822c040d610be50c87dcfe637f2dde278e8fda8c623a39040aa107951f59fe8c5aadd9cfa726a8593587453b2d8461008c565b61027e60608801357f10d51db368b68b675269104dbac1f5484e95efb7805092ae421dee81b9d355fb7f2dd43d13fc0a57e8c84e2546a7c20c474534580018ec6406e9c13a34d612e6c78461008c565b6102ce60808801357f2976313ccaeeb7825b1ec58c3588a58c9c874499693f27efb4217f6f1a53bd1a7f2d2e3485928fb46f11abc85a4f163ed10f3d5c86b8c8c4d8b66a5fefee1a1ac68461008c565b61031e60a08801357f3058d1d75f260ae53c659cf1f36bd0b448c23bfaa156b782352717dda5edc1cf7f103c6470d172da0e9b32dcca0aa1470884b5d9c366d1f5bf21a384d134f265228461008c565b50823581527f30644e72e131a029b85045b68181585d97816a916871ca8d3c208c16d87cfd4760208401357f30644e72e131a029b85045b68181585d97816a916871ca8d3c208c16d87cfd4703066020820152833560408201526020840135606082015260408401356080820152606084013560a08201527f22b18aedf169be4c06ef29a2470dc832f661951c6f167e46916642656f01542260c08201527f119f88892e1a842580fb86bb96575360eb611c4e252708906caabc61a46a381d60e08201527f239b7c4a6be67da9b4439f245f2f918a4ffb38b8cdd40acc7dcc862779013ed16101008201527f01dd9ec6a8bb5e62473de4856f565f3a92a28ef2a0f0ef27c6c66b699215bff26101208201527f021e1063d23334cd8d99862c46a3b04d1d92790f550ff6ed68e560b53056a5b36101408201527f2a6db7aaf90babfaf1093da2272760bbfc8b6db7ec5ccd2fc2ddb71cf27331e56101608201525f87015161018082015260205f018701516101a08201527f198e9393920d483a7260bfb731fb5d25f1aa493335a9e71297e485b7aef312c26101c08201527f1800deef121f1e76426a00665e5c4479674322d4f75edadd46debd5cd992f6ed6101e08201527f090689d0585ff075ec9e99ad690c3395bc4b313370b38ef355acdadcd122975b6102008201527f12c85ea5db8c6deb4aab71808dcb408fe3d1e7690c43d37b4ce6cc0166fa7daa610220820152843561024082015260208501356102608201527f198e9393920d483a7260bfb731fb5d25f1aa493335a9e71297e485b7aef312c26102808201527f1800deef121f1e76426a00665e5c4479674322d4f75edadd46debd5cd992f6ed6102a08201527f090689d0585ff075ec9e99ad690c3395bc4b313370b38ef355acdadcd122975b6102c08201527f12c85ea5db8c6deb4aab71808dcb408fe3d1e7690c43d37b4ce6cc0166fa7daa6102e08201526020816103008360086107d05a03fa9051169695505050505050565b60405161038081016040526106135f84013561005a565b610620602084013561005a565b61062d604084013561005a565b61063a606084013561005a565b610647608084013561005a565b61065460a084013561005a565b610661818486888a6100f2565b9050805f5260205ff35b806040810183101561067b575f80fd5b92915050565b5f805f806101c08587031215610695575f80fd5b61069f868661066b565b935060c08501868111156106b1575f80fd5b6040860193506106c1878261066b565b925050856101c0860111156106d4575f80fd5b5091949093509091610100019056fea264697066735822122020b871845246be05e16785a9fbc8c87641443808f0ff6eb2cb3e46fa5406346664736f6c634300081a0033","linkReferences":{}},"methodIdentifiers":{"verifyProof(uint256[2],uint256[2][2],uint256[2],uint256[6])":"f398789b"},"id":108}