{"abi":[{"type":"constructor","inputs":[{"name":"_verifier","type":"address","internalType":"contract IVerifier"},{"name":"_hasher","type":"address","internalType":"contract IHasher"},{"name":"_denomination","type":"uint256","internalType":"uint256"},{"name":"_merkleTreeHeight","type":"uint32","internalType":"uint32"}],"stateMutability":"nonpayable"},{"type":"function","name":"FIELD_SIZE","inputs":[],"outputs":[{"name":"","type":"uint256","internalType":"uint256"}],"stateMutability":"view"},{"type":"function","name":"ROOT_HISTORY_SIZE","inputs":[],"outputs":[{"name":"","type":"uint32","internalType":"uint32"}],"stateMutability":"view"},{"type":"function","name":"ZERO_VALUE","inputs":[],"outputs":[{"name":"","type":"uint256","internalType":"uint256"}],"stateMutability":"view"},{"type":"function","name":"_hellpwWorld","inputs":[],"outputs":[],"stateMutability":"nonpayable"},{"type":"function","name":"commitments","inputs":[{"name":"","type":"bytes32","internalType":"bytes32"}],"outputs":[{"name":"","type":"bool","internalType":"bool"}],"stateMutability":"view"},{"type":"function","name":"currentRootIndex","inputs":[],"outputs":[{"name":"","type":"uint32","internalType":"uint32"}],"stateMutability":"view"},{"type":"function","name":"denomination","inputs":[],"outputs":[{"name":"","type":"uint256","internalType":"uint256"}],"stateMutability":"view"},{"type":"function","name":"deposit","inputs":[{"name":"_commitment","type":"bytes32","internalType":"bytes32"}],"outputs":[],"stateMutability":"payable"},{"type":"function","name":"filledSubtrees","inputs":[{"name":"","type":"uint256","internalType":"uint256"}],"outputs":[{"name":"","type":"bytes32","internalType":"bytes32"}],"stateMutability":"view"},{"type":"function","name":"getLastRoot","inputs":[],"outputs":[{"name":"","type":"bytes32","internalType":"bytes32"}],"stateMutability":"view"},{"type":"function","name":"hashLeftRight","inputs":[{"name":"_hasher","type":"address","internalType":"contract IHasher"},{"name":"_left","type":"bytes32","internalType":"bytes32"},{"name":"_right","type":"bytes32","internalType":"bytes32"}],"outputs":[{"name":"","type":"bytes32","internalType":"bytes32"}],"stateMutability":"pure"},{"type":"function","name":"hasher","inputs":[],"outputs":[{"name":"","type":"address","internalType":"contract IHasher"}],"stateMutability":"view"},{"type":"function","name":"isKnownRoot","inputs":[{"name":"_root","type":"bytes32","internalType":"bytes32"}],"outputs":[{"name":"","type":"bool","internalType":"bool"}],"stateMutability":"view"},{"type":"function","name":"isSpent","inputs":[{"name":"_nullifierHash","type":"bytes32","internalType":"bytes32"}],"outputs":[{"name":"","type":"bool","internalType":"bool"}],"stateMutability":"view"},{"type":"function","name":"isSpentArray","inputs":[{"name":"_nullifierHashes","type":"bytes32[]","internalType":"bytes32[]"}],"outputs":[{"name":"spent","type":"bool[]","internalType":"bool[]"}],"stateMutability":"view"},{"type":"function","name":"levels","inputs":[],"outputs":[{"name":"","type":"uint32","internalType":"uint32"}],"stateMutability":"view"},{"type":"function","name":"nextIndex","inputs":[],"outputs":[{"name":"","type":"uint32","internalType":"uint32"}],"stateMutability":"view"},{"type":"function","name":"nullifierHashes","inputs":[{"name":"","type":"bytes32","internalType":"bytes32"}],"outputs":[{"name":"","type":"bool","internalType":"bool"}],"stateMutability":"view"},{"type":"function","name":"roots","inputs":[{"name":"","type":"uint256","internalType":"uint256"}],"outputs":[{"name":"","type":"bytes32","internalType":"bytes32"}],"stateMutability":"view"},{"type":"function","name":"verifier","inputs":[],"outputs":[{"name":"","type":"address","internalType":"contract IVerifier"}],"stateMutability":"view"},{"type":"function","name":"withdraw","inputs":[{"name":"_pA","type":"uint256[2]","internalType":"uint256[2]"},{"name":"_pB","type":"uint256[2][2]","internalType":"uint256[2][2]"},{"name":"_pC","type":"uint256[2]","internalType":"uint256[2]"},{"name":"_root","type":"bytes32","internalType":"bytes32"},{"name":"_nullifierHash","type":"bytes32","internalType":"bytes32"},{"name":"_recipient","type":"address","internalType":"address"},{"name":"_relayer","type":"address","internalType":"address"},{"name":"_fee","type":"uint256","internalType":"uint256"},{"name":"_refund","type":"uint256","internalType":"uint256"}],"outputs":[],"stateMutability":"payable"},{"type":"function","name":"zeros","inputs":[{"name":"i","type":"uint256","internalType":"uint256"}],"outputs":[{"name":"","type":"bytes32","internalType":"bytes32"}],"stateMutability":"pure"},{"type":"event","name":"Deposit","inputs":[{"name":"commitment","type":"bytes32","indexed":true,"internalType":"bytes32"},{"name":"leafIndex","type":"uint32","indexed":false,"internalType":"uint32"},{"name":"timestamp","type":"uint256","indexed":false,"internalType":"uint256"}],"anonymous":false},{"type":"event","name":"Withdrawal","inputs":[{"name":"to","type":"address","indexed":false,"internalType":"address"},{"name":"nullifierHash","type":"bytes32","indexed":false,"internalType":"bytes32"},{"name":"relayer","type":"address","indexed":true,"internalType":"address"},{"name":"fee","type":"uint256","indexed":false,"internalType":"uint256"}],"anonymous":false}],"bytecode":{"object":"0x60c0604052600380546001600160401b03191690555f600855348015610023575f80fd5b506040516125253803806125258339810160408190526100429161086a565b8383838380835f8263ffffffff16116100ae5760405162461bcd60e51b815260206004820152602360248201527f5f6c6576656c732073686f756c642062652067726561746572207468616e207a60448201526265726f60e81b60648201526084015b60405180910390fd5b60208263ffffffff16106101045760405162461bcd60e51b815260206004820152601e60248201527f5f6c6576656c732073686f756c64206265206c657373207468616e203332000060448201526064016100a5565b5f805463ffffffff191663ffffffff84161781556001600160a01b0382166080525b8263ffffffff168163ffffffff16101561016a5761014963ffffffff821661022d565b63ffffffff82165f9081526001602081905260409091209190915501610126565b506101846101796001846108c4565b63ffffffff1661022d565b5f805260026020527fac33ff75c19e70fe83507db0d683fd3465c996598dc972688b7ace676c89077b5550506001600455816102105760405162461bcd60e51b815260206004820152602560248201527f64656e6f6d696e6174696f6e2073686f756c6420626520677265617465722074604482015264068616e20360dc1b60648201526084016100a5565b506001600160a01b0390921660a05250600555506108f292505050565b5f815f0361025c57507f2fe54c60d3acabf3343a35b6eba15db4821b340f76e741e2249685ed4899af6c919050565b8160010361028b57507f256a6135777eee2fd26f54b8b7037a25439d5235caee224154186d2b8a52e31d919050565b816002036102ba57507f1151949895e82ab19924de92c40a3d6f7bcb60d92b00504b8199613683f0c200919050565b816003036102e957507f20121ee811489ff8d61f09fb89e313f14959a0f28bb428a20dba6b0b068b3bdb919050565b8160040361031857507f0a89ca6ffa14cc462cfedb842c30ed221a50a3d6bf022a6a57dc82ab24c157c9919050565b8160050361034757507f24ca05c2b5cd42e890d6be94c68d0689f4f21c9cec9c0f13fe41d566dfb54959919050565b8160060361037657507f1ccb97c932565a92c60156bdba2d08f3bf1377464e025cee765679e604a7315c919050565b816007036103a557507f19156fbd7d1a8bf5cba8909367de1b624534ebab4f0f79e003bccdd1b182bdb4919050565b816008036103d457507f261af8c1f0912e465744641409f622d466c3920ac6e5ff37e36604cb11dfff80919050565b8160090361040257507e58459724ff6ca5a1652fcbc3e82b93895cf08e975b19beab3f54c217d1c007919050565b81600a0361043157507f1f04ef20dee48d39984d8eabe768a70eafa6310ad20849d4573c3c40c2ad1e30919050565b81600b0361046057507f1bea3dec5dab51567ce7e200a30f7ba6d4276aeaa53e2686f962a46c66d511e5919050565b81600c0361048f57507f0ee0f941e2da4b9e31c3ca97a40d8fa9ce68d97c084177071b3cb46cd3372f0f919050565b81600d036104be57507f1ca9503e8935884501bbaf20be14eb4c46b89772c97b96e3b2ebf3a36a948bbd919050565b81600e036104ed57507f133a80e30697cd55d8f7d4b0965b7be24057ba5dc3da898ee2187232446cb108919050565b81600f0361051c57507f13e6d8fc88839ed76e182c2a779af5b2c0da9dd18c90427a644f7e148a6253b6919050565b8160100361054b57507f1eb16b057a477f4bc8f572ea6bee39561098f78f15bfb3699dcbb7bd8db61854919050565b8160110361057a57507f0da2cb16a1ceaabf1c16b838f7a9e3f2a3a3088d9e0a6debaa748114620696ea919050565b816012036105a957507f24a3b3d822420b14b5d8cb6c28a574f01e98ea9e940551d2ebd75cee12649f9d919050565b816013036105d857507f198622acbd783d1b0d9064105b1fc8e4d8889de95c4c519b3f635809fe6afc05919050565b8160140361060757507f29d7ed391256ccc3ea596c86e933b89ff339d25ea8ddced975ae2fe30b5296d4919050565b8160150361063657507f19be59f2f0413ce78c0c3703a3a5451b1d7f39629fa33abd11548a76065b2967919050565b8160160361066557507f1ff3f61797e538b70e619310d33f2a063e7eb59104e112e95738da1254dc3453919050565b8160170361069457507f10c16ae9959cf8358980d9dd9616e48228737310a10e2b6b731c1a548f036c48919050565b816018036106c357507f0ba433a63174a90ac20992e75e3095496812b652685b5e1a2eae0b1bf4e8fcd1919050565b816019036106f257507f019ddb9df2bc98d987d0dfeca9d2b643deafab8f7036562e627c3667266a044c919050565b81601a0361072157507f2d3c88b23175c5a5565db928414c66d1912b11acf974b2e644caaac04739ce99919050565b81601b0361075057507f2eab55f6ae4e66e32c5189eed5c470840863445760f5ed7e7b69b2a62600f354919050565b81601c0361077e57507e2df37a2642621802383cf952bf4dd1f32e05433beeb1fd41031fb7eace979d919050565b81601d036107ad57507f104aeb41435db66c3e62feccc1d6f5d98d0a0ed75d1374db457cf462e3a1f427919050565b81601e036107dc57507f1f3c6fd858e9a7d4b0d1f38e256a09d81d5a5e3c963987e2d4b814cfab7c6ebb919050565b81601f0361080b57507f2c7a07d20dff79d01fecedc1134284a8d08436606c93693b67e333f671bf69cc919050565b60405162461bcd60e51b815260206004820152601360248201527f496e646578206f7574206f6620626f756e64730000000000000000000000000060448201526064016100a5565b6001600160a01b0381168114610867575f80fd5b50565b5f805f806080858703121561087d575f80fd5b845161088881610853565b602086015190945061089981610853565b60408601516060870151919450925063ffffffff811681146108b9575f80fd5b939692955090935050565b63ffffffff82811682821603908111156108ec57634e487b7160e01b5f52601160045260245ffd5b92915050565b60805160a051611c046109215f395f81816101da015261068801525f818161045901526115fb0152611c045ff3fe60806040526004361061016d575f3560e01c8063b214faa5116100c6578063e82955881161007c578063f178e47c11610057578063f178e47c1461047b578063f5a38a30146104a6578063fc7e9c6f146104bc575f80fd5b8063e8295588146103f6578063ec73295914610415578063ed33639f14610448575f80fd5b8063c2b40ae4116100ac578063c2b40ae414610389578063cd87a3b4146103b4578063e5285dcc146103c8575f80fd5b8063b214faa51461034e578063ba70f75714610361575f80fd5b80636d9833e3116101265780638ea3099e116101015780638ea3099e146102e757806390eeb02b146103065780639fa12d0b14610322575f80fd5b80636d9833e314610285578063839df945146102a45780638bca6d16146102d2575f80fd5b80632b7ac3f3116101565780632b7ac3f3146101c9578063414a37ba146102145780634ecf518b14610255575f80fd5b806317cc915c146101715780632aa4eeec146101b4575b5f80fd5b34801561017c575f80fd5b5061019f61018b36600461173d565b60066020525f908152604090205460ff1681565b60405190151581526020015b60405180910390f35b6101c76101c2366004611781565b6104e0565b005b3480156101d4575f80fd5b506101fc7f000000000000000000000000000000000000000000000000000000000000000081565b6040516001600160a01b0390911681526020016101ab565b34801561021f575f80fd5b506102477f30644e72e131a029b85045b68181585d2833e84879b9709143e1f593f000000181565b6040519081526020016101ab565b348015610260575f80fd5b505f546102709063ffffffff1681565b60405163ffffffff90911681526020016101ab565b348015610290575f80fd5b5061019f61029f36600461173d565b6107d2565b3480156102af575f80fd5b5061019f6102be36600461173d565b60076020525f908152604090205460ff1681565b3480156102dd575f80fd5b5061024760055481565b3480156102f2575f80fd5b5061024761030136600461181b565b61084b565b348015610311575f80fd5b506003546102709063ffffffff1681565b34801561032d575f80fd5b5061034161033c36600461184d565b610a55565b6040516101ab91906118be565b6101c761035c36600461173d565b610b0f565b34801561036c575f80fd5b5060035463ffffffff165f90815260026020526040902054610247565b348015610394575f80fd5b506102476103a336600461173d565b60026020525f908152604090205481565b3480156103bf575f80fd5b50610270601e81565b3480156103d3575f80fd5b5061019f6103e236600461173d565b5f9081526006602052604090205460ff1690565b348015610401575f80fd5b5061024761041036600461173d565b610c43565b348015610420575f80fd5b506102477f2fe54c60d3acabf3343a35b6eba15db4821b340f76e741e2249685ed4899af6c81565b348015610453575f80fd5b506101fc7f000000000000000000000000000000000000000000000000000000000000000081565b348015610486575f80fd5b5061024761049536600461173d565b60016020525f908152604090205481565b3480156104b1575f80fd5b506101c76064600855565b3480156104c7575f80fd5b5060035461027090640100000000900463ffffffff1681565b6002600454036105375760405162461bcd60e51b815260206004820152601f60248201527f5265656e7472616e637947756172643a207265656e7472616e742063616c6c0060448201526064015b60405180910390fd5b600260045560055482111561058e5760405162461bcd60e51b815260206004820152601a60248201527f4665652065786365656473207472616e736665722076616c7565000000000000604482015260640161052e565b5f8581526006602052604090205460ff16156105ec5760405162461bcd60e51b815260206004820152601f60248201527f546865206e6f746520686173206265656e20616c7265616479207370656e7400604482015260640161052e565b6105f5866107d2565b6106415760405162461bcd60e51b815260206004820152601c60248201527f43616e6e6f742066696e6420796f7572206d65726b6c6520726f6f7400000000604482015260640161052e565b6040805160c081018252878152602081018790526001600160a01b038681168284015285811660608301526080820185905260a08201849052915163f398789b60e01b81527f00000000000000000000000000000000000000000000000000000000000000009092169163f398789b916106c4918d918d918d9190600401611902565b602060405180830381865afa1580156106df573d5f803e3d5ffd5b505050506040513d601f19601f820116820180604052508101906107039190611972565b61074f5760405162461bcd60e51b815260206004820152601660248201527f496e76616c69642077697468647261772070726f6f6600000000000000000000604482015260640161052e565b5f858152600660205260409020805460ff1916600117905561077384848484611269565b604080516001600160a01b03868116825260208201889052918101849052908416907fe9e508bad6d4c3227e881ca19068f099da81b5164dd6d62b2eaf1e8bc6c349319060600160405180910390a25050600160045550505050505050565b5f8181036107e157505f919050565b60035463ffffffff16805b63ffffffff81165f908152600260205260409020548403610811575060019392505050565b8063ffffffff165f036108225750601e5b8061082c816119ac565b9150508163ffffffff168163ffffffff16036107ec57505f9392505050565b5f7f30644e72e131a029b85045b68181585d2833e84879b9709143e1f593f000000183106108bb5760405162461bcd60e51b815260206004820181905260248201527f5f6c6566742073686f756c6420626520696e7369646520746865206669656c64604482015260640161052e565b7f30644e72e131a029b85045b68181585d2833e84879b9709143e1f593f000000182106109345760405162461bcd60e51b815260206004820152602160248201527f5f72696768742073686f756c6420626520696e7369646520746865206669656c6044820152601960fa1b606482015260840161052e565b604051633f1a118760e01b8152600481018490525f602482018190526044820181905284916001600160a01b03871690633f1a1187906064016040805180830381865afa158015610987573d5f803e3d5ffd5b505050506040513d601f19601f820116820180604052508101906109ab91906119ca565b90925090507f30644e72e131a029b85045b68181585d2833e84879b9709143e1f593f0000001848308604051633f1a118760e01b815260048101829052602481018390525f60448201529092506001600160a01b03871690633f1a1187906064016040805180830381865afa158015610a26573d5f803e3d5ffd5b505050506040513d601f19601f82011682018060405250810190610a4a91906119ca565b509695505050505050565b60608167ffffffffffffffff811115610a7057610a70611a00565b604051908082528060200260200182016040528015610a99578160200160208202803683370190505b5090505f5b82811015610b0857610ad6848483818110610abb57610abb611a14565b905060200201355f9081526006602052604090205460ff1690565b15610b00576001828281518110610aef57610aef611a14565b911515602092830291909101909101525b600101610a9e565b5092915050565b600260045403610b615760405162461bcd60e51b815260206004820152601f60248201527f5265656e7472616e637947756172643a207265656e7472616e742063616c6c00604482015260640161052e565b60026004555f8181526007602052604090205460ff1615610bce5760405162461bcd60e51b815260206004820152602160248201527f54686520636f6d6d69746d656e7420686173206265656e207375626d697474656044820152601960fa1b606482015260840161052e565b5f610bd8826114d6565b5f838152600760205260409020805460ff191660011790559050610bfa6116c4565b6040805163ffffffff8316815242602082015283917fa945e51eec50ab98c161376f0db4cf2aeba3ec92755fe2fcd388bdbbb80ff196910160405180910390a250506001600455565b5f815f03610c7257507f2fe54c60d3acabf3343a35b6eba15db4821b340f76e741e2249685ed4899af6c919050565b81600103610ca157507f256a6135777eee2fd26f54b8b7037a25439d5235caee224154186d2b8a52e31d919050565b81600203610cd057507f1151949895e82ab19924de92c40a3d6f7bcb60d92b00504b8199613683f0c200919050565b81600303610cff57507f20121ee811489ff8d61f09fb89e313f14959a0f28bb428a20dba6b0b068b3bdb919050565b81600403610d2e57507f0a89ca6ffa14cc462cfedb842c30ed221a50a3d6bf022a6a57dc82ab24c157c9919050565b81600503610d5d57507f24ca05c2b5cd42e890d6be94c68d0689f4f21c9cec9c0f13fe41d566dfb54959919050565b81600603610d8c57507f1ccb97c932565a92c60156bdba2d08f3bf1377464e025cee765679e604a7315c919050565b81600703610dbb57507f19156fbd7d1a8bf5cba8909367de1b624534ebab4f0f79e003bccdd1b182bdb4919050565b81600803610dea57507f261af8c1f0912e465744641409f622d466c3920ac6e5ff37e36604cb11dfff80919050565b81600903610e1857507e58459724ff6ca5a1652fcbc3e82b93895cf08e975b19beab3f54c217d1c007919050565b81600a03610e4757507f1f04ef20dee48d39984d8eabe768a70eafa6310ad20849d4573c3c40c2ad1e30919050565b81600b03610e7657507f1bea3dec5dab51567ce7e200a30f7ba6d4276aeaa53e2686f962a46c66d511e5919050565b81600c03610ea557507f0ee0f941e2da4b9e31c3ca97a40d8fa9ce68d97c084177071b3cb46cd3372f0f919050565b81600d03610ed457507f1ca9503e8935884501bbaf20be14eb4c46b89772c97b96e3b2ebf3a36a948bbd919050565b81600e03610f0357507f133a80e30697cd55d8f7d4b0965b7be24057ba5dc3da898ee2187232446cb108919050565b81600f03610f3257507f13e6d8fc88839ed76e182c2a779af5b2c0da9dd18c90427a644f7e148a6253b6919050565b81601003610f6157507f1eb16b057a477f4bc8f572ea6bee39561098f78f15bfb3699dcbb7bd8db61854919050565b81601103610f9057507f0da2cb16a1ceaabf1c16b838f7a9e3f2a3a3088d9e0a6debaa748114620696ea919050565b81601203610fbf57507f24a3b3d822420b14b5d8cb6c28a574f01e98ea9e940551d2ebd75cee12649f9d919050565b81601303610fee57507f198622acbd783d1b0d9064105b1fc8e4d8889de95c4c519b3f635809fe6afc05919050565b8160140361101d57507f29d7ed391256ccc3ea596c86e933b89ff339d25ea8ddced975ae2fe30b5296d4919050565b8160150361104c57507f19be59f2f0413ce78c0c3703a3a5451b1d7f39629fa33abd11548a76065b2967919050565b8160160361107b57507f1ff3f61797e538b70e619310d33f2a063e7eb59104e112e95738da1254dc3453919050565b816017036110aa57507f10c16ae9959cf8358980d9dd9616e48228737310a10e2b6b731c1a548f036c48919050565b816018036110d957507f0ba433a63174a90ac20992e75e3095496812b652685b5e1a2eae0b1bf4e8fcd1919050565b8160190361110857507f019ddb9df2bc98d987d0dfeca9d2b643deafab8f7036562e627c3667266a044c919050565b81601a0361113757507f2d3c88b23175c5a5565db928414c66d1912b11acf974b2e644caaac04739ce99919050565b81601b0361116657507f2eab55f6ae4e66e32c5189eed5c470840863445760f5ed7e7b69b2a62600f354919050565b81601c0361119457507e2df37a2642621802383cf952bf4dd1f32e05433beeb1fd41031fb7eace979d919050565b81601d036111c357507f104aeb41435db66c3e62feccc1d6f5d98d0a0ed75d1374db457cf462e3a1f427919050565b81601e036111f257507f1f3c6fd858e9a7d4b0d1f38e256a09d81d5a5e3c963987e2d4b814cfab7c6ebb919050565b81601f0361122157507f2c7a07d20dff79d01fecedc1134284a8d08436606c93693b67e333f671bf69cc919050565b60405162461bcd60e51b815260206004820152601360248201527f496e646578206f7574206f6620626f756e647300000000000000000000000000604482015260640161052e565b34156112dd5760405162461bcd60e51b815260206004820152603560248201527f4d6573736167652076616c756520697320737570706f73656420746f2062652060448201527f7a65726f20666f722045544820696e7374616e63650000000000000000000000606482015260840161052e565b80156113515760405162461bcd60e51b815260206004820152603460248201527f526566756e642076616c756520697320737570706f73656420746f206265207a60448201527f65726f20666f722045544820696e7374616e6365000000000000000000000000606482015260840161052e565b5f846001600160a01b03168360055461136a9190611a28565b6040515f81818185875af1925050503d805f81146113a3576040519150601f19603f3d011682016040523d82523d5f602084013e6113a8565b606091505b505090508061141f5760405162461bcd60e51b815260206004820152602560248201527f7061796d656e7420746f205f726563697069656e7420646964206e6f7420676f60448201527f2074687275000000000000000000000000000000000000000000000000000000606482015260840161052e565b82156114cf576040516001600160a01b0385169084905f81818185875af1925050503d805f811461146b576040519150601f19603f3d011682016040523d82523d5f602084013e611470565b606091505b505080915050806114cf5760405162461bcd60e51b815260206004820152602360248201527f7061796d656e7420746f205f72656c6179657220646964206e6f7420676f207460448201526268727560e81b606482015260840161052e565b5050505050565b6003545f8054909163ffffffff6401000000009091048116916114fb91166002611b4d565b63ffffffff168163ffffffff160361157b5760405162461bcd60e51b815260206004820152603060248201527f4d65726b6c6520747265652069732066756c6c2e204e6f206d6f7265206c656160448201527f7665732063616e20626520616464656400000000000000000000000000000000606482015260840161052e565b80835f80805b5f5463ffffffff90811690821610156116385761159f600286611b64565b63ffffffff165f036115db578392506115bd8163ffffffff16610c43565b63ffffffff82165f90815260016020526040902085905591506115f6565b63ffffffff81165f9081526001602052604090205492508391505b6116217f0000000000000000000000000000000000000000000000000000000000000000848461084b565b935061162e600286611b8b565b9450600101611581565b506003545f90601e906116529063ffffffff166001611bb2565b61165c9190611b64565b6003805463ffffffff191663ffffffff83169081179091555f9081526002602052604090208590559050611691866001611bb2565b6003805463ffffffff929092166401000000000267ffffffff000000001990921691909117905550939695505050505050565b600554341461173b5760405162461bcd60e51b815260206004820152603860248201527f506c656173652073656e6420606d697844656e6f6d696e6174696f6e6020455460448201527f4820616c6f6e672077697468207472616e73616374696f6e0000000000000000606482015260840161052e565b565b5f6020828403121561174d575f80fd5b5035919050565b8060408101831015611764575f80fd5b92915050565b6001600160a01b038116811461177e575f80fd5b50565b5f805f805f805f805f6101c08a8c03121561179a575f80fd5b6117a48b8b611754565b985060c08a018b8111156117b6575f80fd5b60408b0198506117c68c82611754565b9750506101008a013595506101208a013594506101408a01356117e88161176a565b93506101608a01356117f98161176a565b989b979a50959894979396929550929361018081013593506101a00135919050565b5f805f6060848603121561182d575f80fd5b83356118388161176a565b95602085013595506040909401359392505050565b5f806020838503121561185e575f80fd5b823567ffffffffffffffff811115611874575f80fd5b8301601f81018513611884575f80fd5b803567ffffffffffffffff81111561189a575f80fd5b8560208260051b84010111156118ae575f80fd5b6020919091019590945092505050565b602080825282518282018190525f918401906040840190835b818110156118f757835115158352602093840193909201916001016118d7565b509095945050505050565b6101c08101604086833760408201855f5b60028110156119345760408284376040928301929190910190600101611913565b50505060408460c08401376101008201835f5b6006811015611966578151835260209283019290910190600101611947565b50505095945050505050565b5f60208284031215611982575f80fd5b81518015158114611991575f80fd5b9392505050565b634e487b7160e01b5f52601160045260245ffd5b5f63ffffffff8216806119c1576119c1611998565b5f190192915050565b5f80604083850312156119db575f80fd5b505080516020909101519092909150565b634e487b7160e01b5f52601260045260245ffd5b634e487b7160e01b5f52604160045260245ffd5b634e487b7160e01b5f52603260045260245ffd5b8181038181111561176457611764611998565b6001815b6001841115611a7657808504811115611a5a57611a5a611998565b6001841615611a6857908102905b60019390931c928002611a3f565b935093915050565b5f82611a8c57506001611764565b81611a9857505f611764565b8160018114611aae5760028114611ab857611ae9565b6001915050611764565b60ff841115611ac957611ac9611998565b6001841b915063ffffffff821115611ae357611ae3611998565b50611764565b5060208310610133831016604e8410600b8410161715611b20575081810a63ffffffff811115611b1b57611b1b611998565b611764565b611b2f63ffffffff8484611a3b565b8063ffffffff04821115611b4557611b45611998565b029392505050565b5f61199163ffffffff841663ffffffff8416611a7e565b5f63ffffffff831680611b7957611b796119ec565b8063ffffffff84160691505092915050565b5f63ffffffff831680611ba057611ba06119ec565b8063ffffffff84160491505092915050565b63ffffffff81811683821601908111156117645761176461199856fea26469706673582212200bfa0d29f4e34238416f9b481604de09aadbc2553e9fcb5aba31069d7bb30eea64736f6c634300081a0033","linkReferences":{}},"methodIdentifiers":{"FIELD_SIZE()":"414a37ba","ROOT_HISTORY_SIZE()":"cd87a3b4","ZERO_VALUE()":"ec732959","_hellpwWorld()":"f5a38a30","commitments(bytes32)":"839df945","currentRootIndex()":"90eeb02b","denomination()":"8bca6d16","deposit(bytes32)":"b214faa5","filledSubtrees(uint256)":"f178e47c","getLastRoot()":"ba70f757","hashLeftRight(address,bytes32,bytes32)":"8ea3099e","hasher()":"ed33639f","isKnownRoot(bytes32)":"6d9833e3","isSpent(bytes32)":"e5285dcc","isSpentArray(bytes32[])":"9fa12d0b","levels()":"4ecf518b","nextIndex()":"fc7e9c6f","nullifierHashes(bytes32)":"17cc915c","roots(uint256)":"c2b40ae4","verifier()":"2b7ac3f3","withdraw(uint256[2],uint256[2][2],uint256[2],bytes32,bytes32,address,address,uint256,uint256)":"2aa4eeec","zeros(uint256)":"e8295588"},"id":104}