{"abi":[{"type":"constructor","inputs":[{"name":"_token0","type":"address","internalType":"address"}],"stateMutability":"nonpayable"},{"type":"receive","stateMutability":"payable"},{"type":"function","name":"swapETHForToken","inputs":[],"outputs":[],"stateMutability":"payable"},{"type":"function","name":"swapTokenForETH","inputs":[{"name":"amount","type":"uint256","internalType":"uint256"}],"outputs":[],"stateMutability":"nonpayable"},{"type":"function","name":"token0","inputs":[],"outputs":[{"name":"","type":"address","internalType":"contract IERC20"}],"stateMutability":"view"},{"type":"event","name":"SwapETHForToken","inputs":[{"name":"user","type":"address","indexed":true,"internalType":"address"},{"name":"amount","type":"uint256","indexed":false,"internalType":"uint256"}],"anonymous":false},{"type":"event","name":"SwapTokenForETH","inputs":[{"name":"user","type":"address","indexed":true,"internalType":"address"},{"name":"amount","type":"uint256","indexed":false,"internalType":"uint256"}],"anonymous":false}],"bytecode":{"object":"0x60a0604052348015600e575f80fd5b506040516104a43803806104a4833981016040819052602b91603b565b6001600160a01b03166080526066565b5f60208284031215604a575f80fd5b81516001600160a01b0381168114605f575f80fd5b9392505050565b60805161041a61008a5f395f818160520152818160e801526102a4015261041a5ff3fe608060405260043610610036575f3560e01c80630dfe1681146100415780636fb84b741461009d578063ffbff8a9146100be575f80fd5b3661003d57005b5f80fd5b34801561004c575f80fd5b506100747f000000000000000000000000000000000000000000000000000000000000000081565b60405173ffffffffffffffffffffffffffffffffffffffff909116815260200160405180910390f35b3480156100a8575f80fd5b506100bc6100b73660046103a7565b6100c6565b005b6100bc610286565b6040516323b872dd60e01b8152336004820152306024820152604481018290527f000000000000000000000000000000000000000000000000000000000000000073ffffffffffffffffffffffffffffffffffffffff16906323b872dd906064016020604051808303815f875af1158015610143573d5f803e3d5ffd5b505050506040513d601f19601f8201168201806040525081019061016791906103be565b6101b85760405162461bcd60e51b815260206004820152601560248201527f546f6b656e207472616e73666572206661696c6564000000000000000000000060448201526064015b60405180910390fd5b6040515f90339083908381818185875af1925050503d805f81146101f7576040519150601f19603f3d011682016040523d82523d5f602084013e6101fc565b606091505b505090508061024d5760405162461bcd60e51b815260206004820152601360248201527f455448207472616e73666572206661696c65640000000000000000000000000060448201526064016101af565b60405182815233907fd50b95c2ccd19e7d50d6961d1a1e9bbb0ce540847fa0de295ea82dfef3ccd4529060200160405180910390a25050565b60405163a9059cbb60e01b81523360048201523460248201819052907f000000000000000000000000000000000000000000000000000000000000000073ffffffffffffffffffffffffffffffffffffffff169063a9059cbb906044016020604051808303815f875af11580156102ff573d5f803e3d5ffd5b505050506040513d601f19601f8201168201806040525081019061032391906103be565b61036f5760405162461bcd60e51b815260206004820152601560248201527f546f6b656e207472616e73666572206661696c6564000000000000000000000060448201526064016101af565b60405181815233907f83686f7d7a811bf654d218a762e8a6446750a1d3a35541a9f6f2c96c82af61029060200160405180910390a250565b5f602082840312156103b7575f80fd5b5035919050565b5f602082840312156103ce575f80fd5b815180151581146103dd575f80fd5b939250505056fea26469706673582212207176dd9544c3f1849b9cc309df38cfd9ae552d831f57fa5fa359ffa96fcdcc0b64736f6c634300081a0033","linkReferences":{}},"methodIdentifiers":{"swapETHForToken()":"ffbff8a9","swapTokenForETH(uint256)":"6fb84b74","token0()":"0dfe1681"},"id":109}