{"abi":[{"type":"constructor","inputs":[{"name":"_manager","type":"address","internalType":"contract IPoolManager"},{"name":"_uri","type":"string","internalType":"string"},{"name":"_verifier","type":"address","internalType":"contract IVerifier"},{"name":"_hasher","type":"address","internalType":"contract IHasher"},{"name":"_denomination","type":"uint256","internalType":"uint256"},{"name":"_merkleTreeHeight","type":"uint32","internalType":"uint32"},{"name":"_swapper","type":"address","internalType":"contract TokenETHSwapper"}],"stateMutability":"nonpayable"},{"type":"fallback","stateMutability":"payable"},{"type":"receive","stateMutability":"payable"},{"type":"function","name":"FIELD_SIZE","inputs":[],"outputs":[{"name":"","type":"uint256","internalType":"uint256"}],"stateMutability":"view"},{"type":"function","name":"ROOT_HISTORY_SIZE","inputs":[],"outputs":[{"name":"","type":"uint32","internalType":"uint32"}],"stateMutability":"view"},{"type":"function","name":"ZERO_VALUE","inputs":[],"outputs":[{"name":"","type":"uint256","internalType":"uint256"}],"stateMutability":"view"},{"type":"function","name":"addLiquidity","inputs":[{"name":"key","type":"tuple","internalType":"struct PoolKey","components":[{"name":"currency0","type":"address","internalType":"Currency"},{"name":"currency1","type":"address","internalType":"Currency"},{"name":"fee","type":"uint24","internalType":"uint24"},{"name":"tickSpacing","type":"int24","internalType":"int24"},{"name":"hooks","type":"address","internalType":"contract IHooks"}]},{"name":"amountEach","type":"uint256","internalType":"uint256"}],"outputs":[],"stateMutability":"nonpayable"},{"type":"function","name":"afterAddLiquidity","inputs":[{"name":"","type":"address","internalType":"address"},{"name":"","type":"tuple","internalType":"struct PoolKey","components":[{"name":"currency0","type":"address","internalType":"Currency"},{"name":"currency1","type":"address","internalType":"Currency"},{"name":"fee","type":"uint24","internalType":"uint24"},{"name":"tickSpacing","type":"int24","internalType":"int24"},{"name":"hooks","type":"address","internalType":"contract IHooks"}]},{"name":"","type":"tuple","internalType":"struct IPoolManager.ModifyLiquidityParams","components":[{"name":"tickLower","type":"int24","internalType":"int24"},{"name":"tickUpper","type":"int24","internalType":"int24"},{"name":"liquidityDelta","type":"int256","internalType":"int256"},{"name":"salt","type":"bytes32","internalType":"bytes32"}]},{"name":"","type":"int256","internalType":"BalanceDelta"},{"name":"","type":"int256","internalType":"BalanceDelta"},{"name":"","type":"bytes","internalType":"bytes"}],"outputs":[{"name":"","type":"bytes4","internalType":"bytes4"},{"name":"","type":"int256","internalType":"BalanceDelta"}],"stateMutability":"nonpayable"},{"type":"function","name":"afterDonate","inputs":[{"name":"","type":"address","internalType":"address"},{"name":"","type":"tuple","internalType":"struct PoolKey","components":[{"name":"currency0","type":"address","internalType":"Currency"},{"name":"currency1","type":"address","internalType":"Currency"},{"name":"fee","type":"uint24","internalType":"uint24"},{"name":"tickSpacing","type":"int24","internalType":"int24"},{"name":"hooks","type":"address","internalType":"contract IHooks"}]},{"name":"","type":"uint256","internalType":"uint256"},{"name":"","type":"uint256","internalType":"uint256"},{"name":"","type":"bytes","internalType":"bytes"}],"outputs":[{"name":"","type":"bytes4","internalType":"bytes4"}],"stateMutability":"nonpayable"},{"type":"function","name":"afterInitialize","inputs":[{"name":"","type":"address","internalType":"address"},{"name":"","type":"tuple","internalType":"struct PoolKey","components":[{"name":"currency0","type":"address","internalType":"Currency"},{"name":"currency1","type":"address","internalType":"Currency"},{"name":"fee","type":"uint24","internalType":"uint24"},{"name":"tickSpacing","type":"int24","internalType":"int24"},{"name":"hooks","type":"address","internalType":"contract IHooks"}]},{"name":"","type":"uint160","internalType":"uint160"},{"name":"","type":"int24","internalType":"int24"}],"outputs":[{"name":"","type":"bytes4","internalType":"bytes4"}],"stateMutability":"nonpayable"},{"type":"function","name":"afterRemoveLiquidity","inputs":[{"name":"","type":"address","internalType":"address"},{"name":"","type":"tuple","internalType":"struct PoolKey","components":[{"name":"currency0","type":"address","internalType":"Currency"},{"name":"currency1","type":"address","internalType":"Currency"},{"name":"fee","type":"uint24","internalType":"uint24"},{"name":"tickSpacing","type":"int24","internalType":"int24"},{"name":"hooks","type":"address","internalType":"contract IHooks"}]},{"name":"","type":"tuple","internalType":"struct IPoolManager.ModifyLiquidityParams","components":[{"name":"tickLower","type":"int24","internalType":"int24"},{"name":"tickUpper","type":"int24","internalType":"int24"},{"name":"liquidityDelta","type":"int256","internalType":"int256"},{"name":"salt","type":"bytes32","internalType":"bytes32"}]},{"name":"","type":"int256","internalType":"BalanceDelta"},{"name":"","type":"int256","internalType":"BalanceDelta"},{"name":"","type":"bytes","internalType":"bytes"}],"outputs":[{"name":"","type":"bytes4","internalType":"bytes4"},{"name":"","type":"int256","internalType":"BalanceDelta"}],"stateMutability":"nonpayable"},{"type":"function","name":"afterSwap","inputs":[{"name":"","type":"address","internalType":"address"},{"name":"","type":"tuple","internalType":"struct PoolKey","components":[{"name":"currency0","type":"address","internalType":"Currency"},{"name":"currency1","type":"address","internalType":"Currency"},{"name":"fee","type":"uint24","internalType":"uint24"},{"name":"tickSpacing","type":"int24","internalType":"int24"},{"name":"hooks","type":"address","internalType":"contract IHooks"}]},{"name":"","type":"tuple","internalType":"struct IPoolManager.SwapParams","components":[{"name":"zeroForOne","type":"bool","internalType":"bool"},{"name":"amountSpecified","type":"int256","internalType":"int256"},{"name":"sqrtPriceLimitX96","type":"uint160","internalType":"uint160"}]},{"name":"","type":"int256","internalType":"BalanceDelta"},{"name":"","type":"bytes","internalType":"bytes"}],"outputs":[{"name":"","type":"bytes4","internalType":"bytes4"},{"name":"","type":"int128","internalType":"int128"}],"stateMutability":"nonpayable"},{"type":"function","name":"balanceOf","inputs":[{"name":"account","type":"address","internalType":"address"},{"name":"id","type":"uint256","internalType":"uint256"}],"outputs":[{"name":"","type":"uint256","internalType":"uint256"}],"stateMutability":"view"},{"type":"function","name":"balanceOfBatch","inputs":[{"name":"accounts","type":"address[]","internalType":"address[]"},{"name":"ids","type":"uint256[]","internalType":"uint256[]"}],"outputs":[{"name":"","type":"uint256[]","internalType":"uint256[]"}],"stateMutability":"view"},{"type":"function","name":"beforeAddLiquidity","inputs":[{"name":"","type":"address","internalType":"address"},{"name":"","type":"tuple","internalType":"struct PoolKey","components":[{"name":"currency0","type":"address","internalType":"Currency"},{"name":"currency1","type":"address","internalType":"Currency"},{"name":"fee","type":"uint24","internalType":"uint24"},{"name":"tickSpacing","type":"int24","internalType":"int24"},{"name":"hooks","type":"address","internalType":"contract IHooks"}]},{"name":"","type":"tuple","internalType":"struct IPoolManager.ModifyLiquidityParams","components":[{"name":"tickLower","type":"int24","internalType":"int24"},{"name":"tickUpper","type":"int24","internalType":"int24"},{"name":"liquidityDelta","type":"int256","internalType":"int256"},{"name":"salt","type":"bytes32","internalType":"bytes32"}]},{"name":"","type":"bytes","internalType":"bytes"}],"outputs":[{"name":"","type":"bytes4","internalType":"bytes4"}],"stateMutability":"pure"},{"type":"function","name":"beforeDonate","inputs":[{"name":"","type":"address","internalType":"address"},{"name":"","type":"tuple","internalType":"struct PoolKey","components":[{"name":"currency0","type":"address","internalType":"Currency"},{"name":"currency1","type":"address","internalType":"Currency"},{"name":"fee","type":"uint24","internalType":"uint24"},{"name":"tickSpacing","type":"int24","internalType":"int24"},{"name":"hooks","type":"address","internalType":"contract IHooks"}]},{"name":"","type":"uint256","internalType":"uint256"},{"name":"","type":"uint256","internalType":"uint256"},{"name":"","type":"bytes","internalType":"bytes"}],"outputs":[{"name":"","type":"bytes4","internalType":"bytes4"}],"stateMutability":"nonpayable"},{"type":"function","name":"beforeInitialize","inputs":[{"name":"","type":"address","internalType":"address"},{"name":"","type":"tuple","internalType":"struct PoolKey","components":[{"name":"currency0","type":"address","internalType":"Currency"},{"name":"currency1","type":"address","internalType":"Currency"},{"name":"fee","type":"uint24","internalType":"uint24"},{"name":"tickSpacing","type":"int24","internalType":"int24"},{"name":"hooks","type":"address","internalType":"contract IHooks"}]},{"name":"","type":"uint160","internalType":"uint160"}],"outputs":[{"name":"","type":"bytes4","internalType":"bytes4"}],"stateMutability":"nonpayable"},{"type":"function","name":"beforeRemoveLiquidity","inputs":[{"name":"","type":"address","internalType":"address"},{"name":"","type":"tuple","internalType":"struct PoolKey","components":[{"name":"currency0","type":"address","internalType":"Currency"},{"name":"currency1","type":"address","internalType":"Currency"},{"name":"fee","type":"uint24","internalType":"uint24"},{"name":"tickSpacing","type":"int24","internalType":"int24"},{"name":"hooks","type":"address","internalType":"contract IHooks"}]},{"name":"","type":"tuple","internalType":"struct IPoolManager.ModifyLiquidityParams","components":[{"name":"tickLower","type":"int24","internalType":"int24"},{"name":"tickUpper","type":"int24","internalType":"int24"},{"name":"liquidityDelta","type":"int256","internalType":"int256"},{"name":"salt","type":"bytes32","internalType":"bytes32"}]},{"name":"","type":"bytes","internalType":"bytes"}],"outputs":[{"name":"","type":"bytes4","internalType":"bytes4"}],"stateMutability":"nonpayable"},{"type":"function","name":"beforeSwap","inputs":[{"name":"sender","type":"address","internalType":"address"},{"name":"key","type":"tuple","internalType":"struct PoolKey","components":[{"name":"currency0","type":"address","internalType":"Currency"},{"name":"currency1","type":"address","internalType":"Currency"},{"name":"fee","type":"uint24","internalType":"uint24"},{"name":"tickSpacing","type":"int24","internalType":"int24"},{"name":"hooks","type":"address","internalType":"contract IHooks"}]},{"name":"params","type":"tuple","internalType":"struct IPoolManager.SwapParams","components":[{"name":"zeroForOne","type":"bool","internalType":"bool"},{"name":"amountSpecified","type":"int256","internalType":"int256"},{"name":"sqrtPriceLimitX96","type":"uint160","internalType":"uint160"}]},{"name":"data","type":"bytes","internalType":"bytes"}],"outputs":[{"name":"","type":"bytes4","internalType":"bytes4"},{"name":"","type":"int256","internalType":"BeforeSwapDelta"},{"name":"","type":"uint24","internalType":"uint24"}],"stateMutability":"nonpayable"},{"type":"function","name":"commitments","inputs":[{"name":"","type":"bytes32","internalType":"bytes32"}],"outputs":[{"name":"","type":"bool","internalType":"bool"}],"stateMutability":"view"},{"type":"function","name":"currentRootIndex","inputs":[],"outputs":[{"name":"","type":"uint32","internalType":"uint32"}],"stateMutability":"view"},{"type":"function","name":"denomination","inputs":[],"outputs":[{"name":"","type":"uint256","internalType":"uint256"}],"stateMutability":"view"},{"type":"function","name":"deposit","inputs":[{"name":"token","type":"address","internalType":"Currency"},{"name":"amount","type":"uint256","internalType":"uint256"},{"name":"commitment","type":"bytes32","internalType":"bytes32"}],"outputs":[],"stateMutability":"payable"},{"type":"function","name":"deposit","inputs":[{"name":"_commitment","type":"bytes32","internalType":"bytes32"}],"outputs":[],"stateMutability":"payable"},{"type":"function","name":"deposits","inputs":[{"name":"","type":"address","internalType":"Currency"},{"name":"","type":"bytes32","internalType":"bytes32"}],"outputs":[{"name":"amount","type":"uint256","internalType":"uint256"},{"name":"commitment","type":"bytes32","internalType":"bytes32"},{"name":"isDeposited","type":"bool","internalType":"bool"},{"name":"token","type":"address","internalType":"Currency"},{"name":"timestamp","type":"uint256","internalType":"uint256"}],"stateMutability":"view"},{"type":"function","name":"filledSubtrees","inputs":[{"name":"","type":"uint256","internalType":"uint256"}],"outputs":[{"name":"","type":"bytes32","internalType":"bytes32"}],"stateMutability":"view"},{"type":"function","name":"getHookPermissions","inputs":[],"outputs":[{"name":"","type":"tuple","internalType":"struct Hooks.Permissions","components":[{"name":"beforeInitialize","type":"bool","internalType":"bool"},{"name":"afterInitialize","type":"bool","internalType":"bool"},{"name":"beforeAddLiquidity","type":"bool","internalType":"bool"},{"name":"afterAddLiquidity","type":"bool","internalType":"bool"},{"name":"beforeRemoveLiquidity","type":"bool","internalType":"bool"},{"name":"afterRemoveLiquidity","type":"bool","internalType":"bool"},{"name":"beforeSwap","type":"bool","internalType":"bool"},{"name":"afterSwap","type":"bool","internalType":"bool"},{"name":"beforeDonate","type":"bool","internalType":"bool"},{"name":"afterDonate","type":"bool","internalType":"bool"},{"name":"beforeSwapReturnDelta","type":"bool","internalType":"bool"},{"name":"afterSwapReturnDelta","type":"bool","internalType":"bool"},{"name":"afterAddLiquidityReturnDelta","type":"bool","internalType":"bool"},{"name":"afterRemoveLiquidityReturnDelta","type":"bool","internalType":"bool"}]}],"stateMutability":"pure"},{"type":"function","name":"getLastRoot","inputs":[],"outputs":[{"name":"","type":"bytes32","internalType":"bytes32"}],"stateMutability":"view"},{"type":"function","name":"hashLeftRight","inputs":[{"name":"_hasher","type":"address","internalType":"contract IHasher"},{"name":"_left","type":"bytes32","internalType":"bytes32"},{"name":"_right","type":"bytes32","internalType":"bytes32"}],"outputs":[{"name":"","type":"bytes32","internalType":"bytes32"}],"stateMutability":"pure"},{"type":"function","name":"hasher","inputs":[],"outputs":[{"name":"","type":"address","internalType":"contract IHasher"}],"stateMutability":"view"},{"type":"function","name":"isApprovedForAll","inputs":[{"name":"account","type":"address","internalType":"address"},{"name":"operator","type":"address","internalType":"address"}],"outputs":[{"name":"","type":"bool","internalType":"bool"}],"stateMutability":"view"},{"type":"function","name":"isKnownRoot","inputs":[{"name":"_root","type":"bytes32","internalType":"bytes32"}],"outputs":[{"name":"","type":"bool","internalType":"bool"}],"stateMutability":"view"},{"type":"function","name":"isSpent","inputs":[{"name":"_nullifierHash","type":"bytes32","internalType":"bytes32"}],"outputs":[{"name":"","type":"bool","internalType":"bool"}],"stateMutability":"view"},{"type":"function","name":"isSpentArray","inputs":[{"name":"_nullifierHashes","type":"bytes32[]","internalType":"bytes32[]"}],"outputs":[{"name":"spent","type":"bool[]","internalType":"bool[]"}],"stateMutability":"view"},{"type":"function","name":"levels","inputs":[],"outputs":[{"name":"","type":"uint32","internalType":"uint32"}],"stateMutability":"view"},{"type":"function","name":"nextIndex","inputs":[],"outputs":[{"name":"","type":"uint32","internalType":"uint32"}],"stateMutability":"view"},{"type":"function","name":"nullifierHashes","inputs":[{"name":"","type":"bytes32","internalType":"bytes32"}],"outputs":[{"name":"","type":"bool","internalType":"bool"}],"stateMutability":"view"},{"type":"function","name":"poolManager","inputs":[],"outputs":[{"name":"","type":"address","internalType":"contract IPoolManager"}],"stateMutability":"view"},{"type":"function","name":"roots","inputs":[{"name":"","type":"uint256","internalType":"uint256"}],"outputs":[{"name":"","type":"bytes32","internalType":"bytes32"}],"stateMutability":"view"},{"type":"function","name":"safeBatchTransferFrom","inputs":[{"name":"from","type":"address","internalType":"address"},{"name":"to","type":"address","internalType":"address"},{"name":"ids","type":"uint256[]","internalType":"uint256[]"},{"name":"values","type":"uint256[]","internalType":"uint256[]"},{"name":"data","type":"bytes","internalType":"bytes"}],"outputs":[],"stateMutability":"nonpayable"},{"type":"function","name":"safeTransferFrom","inputs":[{"name":"from","type":"address","internalType":"address"},{"name":"to","type":"address","internalType":"address"},{"name":"id","type":"uint256","internalType":"uint256"},{"name":"value","type":"uint256","internalType":"uint256"},{"name":"data","type":"bytes","internalType":"bytes"}],"outputs":[],"stateMutability":"nonpayable"},{"type":"function","name":"setApprovalForAll","inputs":[{"name":"operator","type":"address","internalType":"address"},{"name":"approved","type":"bool","internalType":"bool"}],"outputs":[],"stateMutability":"nonpayable"},{"type":"function","name":"supportsInterface","inputs":[{"name":"interfaceId","type":"bytes4","internalType":"bytes4"}],"outputs":[{"name":"","type":"bool","internalType":"bool"}],"stateMutability":"view"},{"type":"function","name":"swapper","inputs":[],"outputs":[{"name":"","type":"address","internalType":"contract TokenETHSwapper"}],"stateMutability":"view"},{"type":"function","name":"unlockCallback","inputs":[{"name":"data","type":"bytes","internalType":"bytes"}],"outputs":[{"name":"","type":"bytes","internalType":"bytes"}],"stateMutability":"nonpayable"},{"type":"function","name":"uri","inputs":[{"name":"","type":"uint256","internalType":"uint256"}],"outputs":[{"name":"","type":"string","internalType":"string"}],"stateMutability":"view"},{"type":"function","name":"verifier","inputs":[],"outputs":[{"name":"","type":"address","internalType":"contract IVerifier"}],"stateMutability":"view"},{"type":"function","name":"withdraw","inputs":[{"name":"_pA","type":"uint256[2]","internalType":"uint256[2]"},{"name":"_pB","type":"uint256[2][2]","internalType":"uint256[2][2]"},{"name":"_pC","type":"uint256[2]","internalType":"uint256[2]"},{"name":"_root","type":"bytes32","internalType":"bytes32"},{"name":"_nullifierHash","type":"bytes32","internalType":"bytes32"},{"name":"_recipient","type":"address","internalType":"address"},{"name":"_relayer","type":"address","internalType":"address"},{"name":"_fee","type":"uint256","internalType":"uint256"},{"name":"_refund","type":"uint256","internalType":"uint256"}],"outputs":[],"stateMutability":"payable"},{"type":"function","name":"zeros","inputs":[{"name":"i","type":"uint256","internalType":"uint256"}],"outputs":[{"name":"","type":"bytes32","internalType":"bytes32"}],"stateMutability":"pure"},{"type":"event","name":"ApprovalForAll","inputs":[{"name":"account","type":"address","indexed":true,"internalType":"address"},{"name":"operator","type":"address","indexed":true,"internalType":"address"},{"name":"approved","type":"bool","indexed":false,"internalType":"bool"}],"anonymous":false},{"type":"event","name":"Deposit","inputs":[{"name":"commitment","type":"bytes32","indexed":true,"internalType":"bytes32"},{"name":"leafIndex","type":"uint32","indexed":false,"internalType":"uint32"},{"name":"timestamp","type":"uint256","indexed":false,"internalType":"uint256"}],"anonymous":false},{"type":"event","name":"ETHReceived","inputs":[{"name":"amount","type":"uint256","indexed":false,"internalType":"uint256"}],"anonymous":false},{"type":"event","name":"TokenDeposited","inputs":[{"name":"token","type":"address","indexed":false,"internalType":"Currency"},{"name":"amount","type":"uint256","indexed":false,"internalType":"uint256"},{"name":"ethReceived","type":"uint256","indexed":false,"internalType":"uint256"}],"anonymous":false},{"type":"event","name":"TransferBatch","inputs":[{"name":"operator","type":"address","indexed":true,"internalType":"address"},{"name":"from","type":"address","indexed":true,"internalType":"address"},{"name":"to","type":"address","indexed":true,"internalType":"address"},{"name":"ids","type":"uint256[]","indexed":false,"internalType":"uint256[]"},{"name":"values","type":"uint256[]","indexed":false,"internalType":"uint256[]"}],"anonymous":false},{"type":"event","name":"TransferSingle","inputs":[{"name":"operator","type":"address","indexed":true,"internalType":"address"},{"name":"from","type":"address","indexed":true,"internalType":"address"},{"name":"to","type":"address","indexed":true,"internalType":"address"},{"name":"id","type":"uint256","indexed":false,"internalType":"uint256"},{"name":"value","type":"uint256","indexed":false,"internalType":"uint256"}],"anonymous":false},{"type":"event","name":"URI","inputs":[{"name":"value","type":"string","indexed":false,"internalType":"string"},{"name":"id","type":"uint256","indexed":true,"internalType":"uint256"}],"anonymous":false},{"type":"event","name":"Withdrawal","inputs":[{"name":"to","type":"address","indexed":false,"internalType":"address"},{"name":"nullifierHash","type":"bytes32","indexed":false,"internalType":"bytes32"},{"name":"relayer","type":"address","indexed":true,"internalType":"address"},{"name":"fee","type":"uint256","indexed":false,"internalType":"uint256"}],"anonymous":false},{"type":"error","name":"AddLiquidityThroughHook","inputs":[]},{"type":"error","name":"ERC1155InsufficientBalance","inputs":[{"name":"sender","type":"address","internalType":"address"},{"name":"balance","type":"uint256","internalType":"uint256"},{"name":"needed","type":"uint256","internalType":"uint256"},{"name":"tokenId","type":"uint256","internalType":"uint256"}]},{"type":"error","name":"ERC1155InvalidApprover","inputs":[{"name":"approver","type":"address","internalType":"address"}]},{"type":"error","name":"ERC1155InvalidArrayLength","inputs":[{"name":"idsLength","type":"uint256","internalType":"uint256"},{"name":"valuesLength","type":"uint256","internalType":"uint256"}]},{"type":"error","name":"ERC1155InvalidOperator","inputs":[{"name":"operator","type":"address","internalType":"address"}]},{"type":"error","name":"ERC1155InvalidReceiver","inputs":[{"name":"receiver","type":"address","internalType":"address"}]},{"type":"error","name":"ERC1155InvalidSender","inputs":[{"name":"sender","type":"address","internalType":"address"}]},{"type":"error","name":"ERC1155MissingApprovalForAll","inputs":[{"name":"operator","type":"address","internalType":"address"},{"name":"owner","type":"address","internalType":"address"}]},{"type":"error","name":"HookNotImplemented","inputs":[]},{"type":"error","name":"InvalidPool","inputs":[]},{"type":"error","name":"LockFailure","inputs":[]},{"type":"error","name":"NotPoolManager","inputs":[]},{"type":"error","name":"NotSelf","inputs":[]},{"type":"error","name":"SwapFailed","inputs":[]}],"bytecode":{"object":"0x610100604052600680546001600160401b0319169055348015610020575f80fd5b50604051615c70380380615c7083398101604081905261003f91610c1f565b6001600160a01b0387166080528484848480838b8d61005d30610251565b5061006781610347565b505f8263ffffffff16116100ce5760405162461bcd60e51b815260206004820152602360248201527f5f6c6576656c732073686f756c642062652067726561746572207468616e207a60448201526265726f60e81b60648201526084015b60405180910390fd5b60208263ffffffff16106101245760405162461bcd60e51b815260206004820152601e60248201527f5f6c6576656c732073686f756c64206265206c657373207468616e203332000060448201526064016100c5565b6003805463ffffffff191663ffffffff84161790556001600160a01b03811660a0525f5b8263ffffffff168163ffffffff1610156101885761016b63ffffffff8216610357565b63ffffffff82165f90815260046020526040902055600101610148565b506101a2610197600184610d2d565b63ffffffff16610357565b5f805260056020527f05b8ccbb9d4d8fb16ea74ce3c29a41f1b461fbdaff4714a0d9a8eb05499746bc55505060016007558161022e5760405162461bcd60e51b815260206004820152602560248201527f64656e6f6d696e6174696f6e2073686f756c6420626520677265617465722074604482015264068616e20360dc1b60648201526084016100c5565b506001600160a01b0392831660c052600855501660e05250610e93945050505050565b6103448161033f604080516101c0810182525f80825260208201819052918101829052606081018290526080810182905260a0810182905260c0810182905260e08101829052610100810182905261012081018290526101408101829052610160810182905261018081018290526101a081019190915250604080516101c0810182525f808252602082018190526001928201839052606082018190526080820181905260a0820181905260c0820183905260e0820181905261010082018190526101208201819052610140820192909252610160810182905261018081018290526101a081019190915290565b610982565b50565b60026103538282610dd9565b5050565b5f815f0361038657507f2fe54c60d3acabf3343a35b6eba15db4821b340f76e741e2249685ed4899af6c919050565b816001036103b557507f256a6135777eee2fd26f54b8b7037a25439d5235caee224154186d2b8a52e31d919050565b816002036103e457507f1151949895e82ab19924de92c40a3d6f7bcb60d92b00504b8199613683f0c200919050565b8160030361041357507f20121ee811489ff8d61f09fb89e313f14959a0f28bb428a20dba6b0b068b3bdb919050565b8160040361044257507f0a89ca6ffa14cc462cfedb842c30ed221a50a3d6bf022a6a57dc82ab24c157c9919050565b8160050361047157507f24ca05c2b5cd42e890d6be94c68d0689f4f21c9cec9c0f13fe41d566dfb54959919050565b816006036104a057507f1ccb97c932565a92c60156bdba2d08f3bf1377464e025cee765679e604a7315c919050565b816007036104cf57507f19156fbd7d1a8bf5cba8909367de1b624534ebab4f0f79e003bccdd1b182bdb4919050565b816008036104fe57507f261af8c1f0912e465744641409f622d466c3920ac6e5ff37e36604cb11dfff80919050565b8160090361052c57507e58459724ff6ca5a1652fcbc3e82b93895cf08e975b19beab3f54c217d1c007919050565b81600a0361055b57507f1f04ef20dee48d39984d8eabe768a70eafa6310ad20849d4573c3c40c2ad1e30919050565b81600b0361058a57507f1bea3dec5dab51567ce7e200a30f7ba6d4276aeaa53e2686f962a46c66d511e5919050565b81600c036105b957507f0ee0f941e2da4b9e31c3ca97a40d8fa9ce68d97c084177071b3cb46cd3372f0f919050565b81600d036105e857507f1ca9503e8935884501bbaf20be14eb4c46b89772c97b96e3b2ebf3a36a948bbd919050565b81600e0361061757507f133a80e30697cd55d8f7d4b0965b7be24057ba5dc3da898ee2187232446cb108919050565b81600f0361064657507f13e6d8fc88839ed76e182c2a779af5b2c0da9dd18c90427a644f7e148a6253b6919050565b8160100361067557507f1eb16b057a477f4bc8f572ea6bee39561098f78f15bfb3699dcbb7bd8db61854919050565b816011036106a457507f0da2cb16a1ceaabf1c16b838f7a9e3f2a3a3088d9e0a6debaa748114620696ea919050565b816012036106d357507f24a3b3d822420b14b5d8cb6c28a574f01e98ea9e940551d2ebd75cee12649f9d919050565b8160130361070257507f198622acbd783d1b0d9064105b1fc8e4d8889de95c4c519b3f635809fe6afc05919050565b8160140361073157507f29d7ed391256ccc3ea596c86e933b89ff339d25ea8ddced975ae2fe30b5296d4919050565b8160150361076057507f19be59f2f0413ce78c0c3703a3a5451b1d7f39629fa33abd11548a76065b2967919050565b8160160361078f57507f1ff3f61797e538b70e619310d33f2a063e7eb59104e112e95738da1254dc3453919050565b816017036107be57507f10c16ae9959cf8358980d9dd9616e48228737310a10e2b6b731c1a548f036c48919050565b816018036107ed57507f0ba433a63174a90ac20992e75e3095496812b652685b5e1a2eae0b1bf4e8fcd1919050565b8160190361081c57507f019ddb9df2bc98d987d0dfeca9d2b643deafab8f7036562e627c3667266a044c919050565b81601a0361084b57507f2d3c88b23175c5a5565db928414c66d1912b11acf974b2e644caaac04739ce99919050565b81601b0361087a57507f2eab55f6ae4e66e32c5189eed5c470840863445760f5ed7e7b69b2a62600f354919050565b81601c036108a857507e2df37a2642621802383cf952bf4dd1f32e05433beeb1fd41031fb7eace979d919050565b81601d036108d757507f104aeb41435db66c3e62feccc1d6f5d98d0a0ed75d1374db457cf462e3a1f427919050565b81601e0361090657507f1f3c6fd858e9a7d4b0d1f38e256a09d81d5a5e3c963987e2d4b814cfab7c6ebb919050565b81601f0361093557507f2c7a07d20dff79d01fecedc1134284a8d08436606c93693b67e333f671bf69cc919050565b60405162461bcd60e51b815260206004820152601360248201527f496e646578206f7574206f6620626f756e64730000000000000000000000000060448201526064016100c5565b919050565b6109976001600160a01b038316612000610baf565b815115159015151415806109c757506109bb6001600160a01b038316611000610baf565b15158160200151151514155b806109ee57506109e26001600160a01b038316610800610baf565b15158160400151151514155b80610a155750610a096001600160a01b038316610400610baf565b15158160600151151514155b80610a3c5750610a306001600160a01b038316610200610baf565b15158160800151151514155b80610a635750610a576001600160a01b038316610100610baf565b15158160a00151151514155b80610a895750610a7d6001600160a01b0383166080610baf565b15158160c00151151514155b80610aaf5750610aa36001600160a01b0383166040610baf565b15158160e00151151514155b80610ad65750610ac96001600160a01b0383166020610baf565b1515816101000151151514155b80610afd5750610af06001600160a01b0383166010610baf565b1515816101200151151514155b80610b245750610b176001600160a01b0383166008610baf565b1515816101400151151514155b80610b4b5750610b3e6001600160a01b0383166004610baf565b1515816101600151151514155b80610b725750610b656001600160a01b0383166002610baf565b1515816101800151151514155b80610b995750610b8c6001600160a01b0383166001610baf565b1515816101a00151151514155b1561035357610353630732d7b560e51b83610bc4565b6001600160a01b038282161615155b92915050565b815f526001600160a01b03811660045260245ffd5b6001600160a01b0381168114610344575f80fd5b634e487b7160e01b5f52604160045260245ffd5b805161097d81610bd9565b805163ffffffff8116811461097d575f80fd5b5f805f805f805f60e0888a031215610c35575f80fd5b8751610c4081610bd9565b60208901519097506001600160401b03811115610c5b575f80fd5b8801601f81018a13610c6b575f80fd5b80516001600160401b03811115610c8457610c84610bed565b604051601f8201601f19908116603f011681016001600160401b0381118282101715610cb257610cb2610bed565b6040528181528282016020018c1015610cc9575f80fd5b8160208401602083015e5f60208383010152809850505050610ced60408901610c01565b9450610cfb60608901610c01565b60808901519094509250610d1160a08901610c0c565b9150610d1f60c08901610c01565b905092959891949750929550565b63ffffffff8281168282160390811115610bbe57634e487b7160e01b5f52601160045260245ffd5b600181811c90821680610d6957607f821691505b602082108103610d8757634e487b7160e01b5f52602260045260245ffd5b50919050565b601f821115610dd457805f5260205f20601f840160051c81016020851015610db25750805b601f840160051c820191505b81811015610dd1575f8155600101610dbe565b50505b505050565b81516001600160401b03811115610df257610df2610bed565b610e0681610e008454610d55565b84610d8d565b6020601f821160018114610e38575f8315610e215750848201515b5f19600385901b1c1916600184901b178455610dd1565b5f84815260208120601f198516915b82811015610e675787850151825560209485019460019092019101610e47565b5084821015610e8457868401515f19600387901b60f8161c191681555b50505050600190811b01905550565b60805160a05160c05160e051614d1e610f525f395f818161054a0152818161101b015281816110ab0152612c0201525f8181610595015281816113f1015261341901525f8181610b28015261266501525f8181610a140152818161174b01528181611797015281816117e90152818161182301528181611b2101528181611b72015281816130da0152818161311e0152818161315e015281816131a0015281816135290152818161355f015281816135a901526135df0152614d1e5ff3fe6080604052600436106102ff575f3560e01c806391dd73461161018e578063cd87a3b4116100e0578063e985e9c511610089578063f178e47c11610063578063f178e47c14610b4a578063f242432a14610b75578063fc7e9c6f14610b945761033a565b8063e985e9c514610a9d578063ec73295914610ae4578063ed33639f14610b175761033a565b8063e1b4af69116100ba578063e1b4af691461087f578063e5285dcc14610a50578063e829558814610a7e5761033a565b8063cd87a3b4146109ef578063dc4c90d314610a03578063dc98354e14610a365761033a565b8063b214faa511610142578063ba70f7571161011c578063ba70f75714610899578063c2b40ae4146108c1578063c4e833ce146108ec5761033a565b8063b214faa51461082f578063b47b2fb114610842578063b6a8b0fa1461087f5761033a565b80639f063efc116101735780639f063efc146106b05780639fa12d0b146107e4578063a22cb465146108105761033a565b806391dd7346146107a65780639e436f57146107c55761033a565b80632eb2c2d6116102525780636d9833e3116101fb5780638bca6d16116101d55780638bca6d16146107565780638ea3099e1461076b57806390eeb02b1461078a5761033a565b80636d9833e3146106ef5780636fe7e6eb1461070e578063839df945146107285761033a565b80634ecf518b1161022c5780634ecf518b14610635578063575e24b4146106665780636c2bbe7e146106b05761033a565b80632eb2c2d6146105b7578063414a37ba146105d65780634e1273f4146106095761033a565b80632260a9c2116102b45780632aa4eeec1161028e5780632aa4eeec146105265780632b3297f9146105395780632b7ac3f3146105845761033a565b80632260a9c21461045d578063259982e5146104f257806326b3293f146105115761033a565b80630e89341c116102e55780630e89341c146103cb57806317cc915c146103f757806321d0ee70146104255761033a565b8062fdd58e1461036a57806301ffc9a71461039c5761033a565b3661033a576040513481527f27f12abfe35860a9a927b465bb3d4a9c23c8428174b83f278fe45ed7b4da2662906020015b60405180910390a1005b6040513481527f27f12abfe35860a9a927b465bb3d4a9c23c8428174b83f278fe45ed7b4da266290602001610330565b348015610375575f80fd5b50610389610384366004613b3b565b610bb8565b6040519081526020015b60405180910390f35b3480156103a7575f80fd5b506103bb6103b6366004613b7a565b610bdf565b6040519015158152602001610393565b3480156103d6575f80fd5b506103ea6103e5366004613b95565b610c2e565b6040516103939190613bda565b348015610402575f80fd5b506103bb610411366004613b95565b60096020525f908152604090205460ff1681565b348015610430575f80fd5b5061044461043f366004613c57565b610cc0565b6040516001600160e01b03199091168152602001610393565b348015610468575f80fd5b506104bc610477366004613b3b565b600b60209081525f928352604080842090915290825290208054600182015460028301546003909301549192909160ff82169161010090046001600160a01b03169085565b604080519586526020860194909452911515928401929092526001600160a01b039091166060830152608082015260a001610393565b3480156104fd575f80fd5b5061044461050c366004613c57565b610cda565b61052461051f366004613cce565b610cf4565b005b610524610534366004613d10565b61124e565b348015610544575f80fd5b5061056c7f000000000000000000000000000000000000000000000000000000000000000081565b6040516001600160a01b039091168152602001610393565b34801561058f575f80fd5b5061056c7f000000000000000000000000000000000000000000000000000000000000000081565b3480156105c2575f80fd5b506105246105d1366004613ef0565b61153b565b3480156105e1575f80fd5b506103897f30644e72e131a029b85045b68181585d2833e84879b9709143e1f593f000000181565b348015610614575f80fd5b50610628610623366004613fa3565b6115c0565b60405161039391906140a2565b348015610640575f80fd5b506003546106519063ffffffff1681565b60405163ffffffff9091168152602001610393565b348015610671575f80fd5b506106856106803660046140c4565b61168b565b604080516001600160e01b03199094168452602084019290925262ffffff1690820152606001610393565b3480156106bb575f80fd5b506106cf6106ca36600461411e565b611876565b604080516001600160e01b03199093168352602083019190915201610393565b3480156106fa575f80fd5b506103bb610709366004613b95565b611891565b348015610719575f80fd5b5061044461043f3660046141a9565b348015610733575f80fd5b506103bb610742366004613b95565b600a6020525f908152604090205460ff1681565b348015610761575f80fd5b5061038960085481565b348015610776575f80fd5b50610389610785366004613cce565b61190a565b348015610795575f80fd5b506006546106519063ffffffff1681565b3480156107b1575f80fd5b506103ea6107c0366004614208565b611b14565b3480156107d0575f80fd5b506105246107df366004614247565b611b70565b3480156107ef575f80fd5b506108036107fe366004614270565b611c9a565b60405161039391906142e1565b34801561081b575f80fd5b5061052461082a366004614332565b611d54565b61052461083d366004613b95565b611d63565b34801561084d575f80fd5b5061085c6106ca366004614369565b604080516001600160e01b03199093168352600f9190910b602083015201610393565b34801561088a575f80fd5b5061044461043f3660046143ea565b3480156108a4575f80fd5b5060065463ffffffff165f90815260056020526040902054610389565b3480156108cc575f80fd5b506103896108db366004613b95565b60056020525f908152604090205481565b3480156108f7575f80fd5b506109e2604080516101c0810182525f80825260208201819052918101829052606081018290526080810182905260a0810182905260c0810182905260e08101829052610100810182905261012081018290526101408101829052610160810182905261018081018290526101a081019190915250604080516101c0810182525f808252602082018190526001928201839052606082018190526080820181905260a0820181905260c0820183905260e0820181905261010082018190526101208201819052610140820192909252610160810182905261018081018290526101a081019190915290565b6040516103939190614444565b3480156109fa575f80fd5b50610651601e81565b348015610a0e575f80fd5b5061056c7f000000000000000000000000000000000000000000000000000000000000000081565b348015610a41575f80fd5b5061044461043f36600461455e565b348015610a5b575f80fd5b506103bb610a6a366004613b95565b5f9081526009602052604090205460ff1690565b348015610a89575f80fd5b50610389610a98366004613b95565b611e97565b348015610aa8575f80fd5b506103bb610ab73660046145a5565b6001600160a01b039182165f90815260016020908152604080832093909416825291909152205460ff1690565b348015610aef575f80fd5b506103897f2fe54c60d3acabf3343a35b6eba15db4821b340f76e741e2249685ed4899af6c81565b348015610b22575f80fd5b5061056c7f000000000000000000000000000000000000000000000000000000000000000081565b348015610b55575f80fd5b50610389610b64366004613b95565b60046020525f908152604090205481565b348015610b80575f80fd5b50610524610b8f3660046145d1565b6124c2565b348015610b9f575f80fd5b5060065461065190640100000000900463ffffffff1681565b5f818152602081815260408083206001600160a01b03861684529091529020545b92915050565b5f6001600160e01b03198216636cdb3d1360e11b1480610c0f57506001600160e01b031982166303a24d0760e21b145b80610bd957506301ffc9a760e01b6001600160e01b0319831614610bd9565b606060028054610c3d90614629565b80601f0160208091040260200160405190810160405280929190818152602001828054610c6990614629565b8015610cb45780601f10610c8b57610100808354040283529160200191610cb4565b820191905f5260205f20905b815481529060010190602001808311610c9757829003601f168201915b50505050509050919050565b5f604051630a85dc2960e01b815260040160405180910390fd5b5f60405163033d48c960e31b815260040160405180910390fd5b600260075403610d4b5760405162461bcd60e51b815260206004820152601f60248201527f5265656e7472616e637947756172643a207265656e7472616e742063616c6c0060448201526064015b60405180910390fd5b60026007555f818152600a602052604090205460ff1615610db85760405162461bcd60e51b815260206004820152602160248201527f54686520636f6d6d69746d656e7420686173206265656e207375626d697474656044820152601960fa1b6064820152608401610d42565b6001600160a01b0383165f908152600b6020908152604080832084845290915290206002015460ff1615610e2e5760405162461bcd60e51b815260206004820152601f60248201527f546f6b656e20636f6d6d69746d656e7420616c726561647920657869737473006044820152606401610d42565b5f610e388261253f565b5f838152600a60205260409020805460ff1916600117905590506001600160a01b038416610f35576008543414610eb15760405162461bcd60e51b815260206004820152601260248201527f496e76616c69642045544820616d6f756e7400000000000000000000000000006044820152606401610d42565b6008548314610f285760405162461bcd60e51b815260206004820152602660248201527f416d6f756e74206d757374206d617463682064656e6f6d696e6174696f6e206660448201527f6f722045544800000000000000000000000000000000000000000000000000006064820152608401610d42565b610f3061272e565b611174565b3415610f8f5760405162461bcd60e51b815260206004820152602360248201527f455448206e6f7420616363657074656420666f7220746f6b656e206465706f7360448201526269747360e81b6064820152608401610d42565b6040516323b872dd60e01b8152336004820152306024820152604481018490526001600160a01b038516906323b872dd906064016020604051808303815f875af1158015610fdf573d5f803e3d5ffd5b505050506040513d601f19601f82011682018060405250810190611003919061465b565b5060405163095ea7b360e01b81526001600160a01b037f0000000000000000000000000000000000000000000000000000000000000000811660048301526024820185905285169063095ea7b3906044016020604051808303815f875af1158015611070573d5f803e3d5ffd5b505050506040513d601f19601f82011682018060405250810190611094919061465b565b50604051631bee12dd60e21b8152600481018490527f00000000000000000000000000000000000000000000000000000000000000006001600160a01b031690636fb84b74906024015f604051808303815f87803b1580156110f4575f80fd5b505af1925050508015611105575060015b6111225760405163081ceff360e41b815260040160405180910390fd5b6008544710156111745760405162461bcd60e51b815260206004820152601b60248201527f496e73756666696369656e7420455448206166746572207377617000000000006044820152606401610d42565b6040805160a081018252848152602080820185815260018385018181526001600160a01b038a81166060870181815242608089019081525f928352600b88528983208c8452909752979020955186559251918501919091555160028401805495517fffffffffffffffffffffff0000000000000000000000000000000000000000009096169115157fffffffffffffffffffffff0000000000000000000000000000000000000000ff1691909117610100959092169490940217909255905160039091015561124382826127a7565b505060016007555050565b6002600754036112a05760405162461bcd60e51b815260206004820152601f60248201527f5265656e7472616e637947756172643a207265656e7472616e742063616c6c006044820152606401610d42565b60026007556008548211156112f75760405162461bcd60e51b815260206004820152601a60248201527f4665652065786365656473207472616e736665722076616c75650000000000006044820152606401610d42565b5f8581526009602052604090205460ff16156113555760405162461bcd60e51b815260206004820152601f60248201527f546865206e6f746520686173206265656e20616c7265616479207370656e74006044820152606401610d42565b61135e86611891565b6113aa5760405162461bcd60e51b815260206004820152601c60248201527f43616e6e6f742066696e6420796f7572206d65726b6c6520726f6f74000000006044820152606401610d42565b6040805160c081018252878152602081018790526001600160a01b038681168284015285811660608301526080820185905260a08201849052915163f398789b60e01b81527f00000000000000000000000000000000000000000000000000000000000000009092169163f398789b9161142d918d918d918d9190600401614698565b602060405180830381865afa158015611448573d5f803e3d5ffd5b505050506040513d601f19601f8201168201806040525081019061146c919061465b565b6114b85760405162461bcd60e51b815260206004820152601660248201527f496e76616c69642077697468647261772070726f6f66000000000000000000006044820152606401610d42565b5f858152600960205260409020805460ff191660011790556114dc848484846127ec565b604080516001600160a01b03868116825260208201889052918101849052908416907fe9e508bad6d4c3227e881ca19068f099da81b5164dd6d62b2eaf1e8bc6c349319060600160405180910390a25050600160075550505050505050565b336001600160a01b038616811480159061157a57506001600160a01b038087165f9081526001602090815260408083209385168352929052205460ff16155b156115ab5760405163711bec9160e11b81526001600160a01b03808316600483015287166024820152604401610d42565b6115b88686868686612a83565b505050505050565b606081518351146115f15781518351604051635b05999160e01b815260048101929092526024820152604401610d42565b5f835167ffffffffffffffff81111561160c5761160c613daa565b604051908082528060200260200182016040528015611635578160200160208202803683370190505b5090505f5b84518110156116835760208082028601015161165e90602080840287010151610bb8565b828281518110611670576116706146e3565b602090810291909101015260010161163a565b509392505050565b5f808061169784612ae1565b600a84106116b7576116ac8888888888612b3e565b92509250925061186b565b5f808760200135136116d5576116d0602088013561470b565b6116db565b86602001355b90505f808860200135136116fb576116f6602089013561470b565b611701565b87602001355b90505f61173261171460208b013561470b565b60801b60208b01356fffffffffffffffffffffffffffffffff161790565b905061174160208a018a614725565b156117e4576117927f0000000000000000000000000000000000000000000000000000000000000000308460018e5f0160208101906117809190614740565b6001600160a01b031693929190612d17565b6117df7f0000000000000000000000000000000000000000000000000000000000000000308460018e60200160208101906117cd9190614740565b6001600160a01b031693929190612e17565b611859565b61181e7f0000000000000000000000000000000000000000000000000000000000000000308460018e5f0160208101906117cd9190614740565b6118597f0000000000000000000000000000000000000000000000000000000000000000308460018e60200160208101906117809190614740565b6315d7892d60e21b955093505f925050505b955095509592505050565b5f80604051630a85dc2960e01b815260040160405180910390fd5b5f8181036118a057505f919050565b60065463ffffffff16805b63ffffffff81165f9081526005602052604090205484036118d0575060019392505050565b8063ffffffff165f036118e15750601e5b806118eb8161475b565b9150508163ffffffff168163ffffffff16036118ab57505f9392505050565b5f7f30644e72e131a029b85045b68181585d2833e84879b9709143e1f593f0000001831061197a5760405162461bcd60e51b815260206004820181905260248201527f5f6c6566742073686f756c6420626520696e7369646520746865206669656c646044820152606401610d42565b7f30644e72e131a029b85045b68181585d2833e84879b9709143e1f593f000000182106119f35760405162461bcd60e51b815260206004820152602160248201527f5f72696768742073686f756c6420626520696e7369646520746865206669656c6044820152601960fa1b6064820152608401610d42565b604051633f1a118760e01b8152600481018490525f602482018190526044820181905284916001600160a01b03871690633f1a1187906064016040805180830381865afa158015611a46573d5f803e3d5ffd5b505050506040513d601f19601f82011682018060405250810190611a6a9190614779565b90925090507f30644e72e131a029b85045b68181585d2833e84879b9709143e1f593f0000001848308604051633f1a118760e01b815260048101829052602481018390525f60448201529092506001600160a01b03871690633f1a1187906064016040805180830381865afa158015611ae5573d5f803e3d5ffd5b505050506040513d601f19601f82011682018060405250810190611b099190614779565b509695505050505050565b6060336001600160a01b037f00000000000000000000000000000000000000000000000000000000000000001614611b5f5760405163570c108560e11b815260040160405180910390fd5b611b6983836130ac565b9392505050565b7f00000000000000000000000000000000000000000000000000000000000000006001600160a01b03166348c894916040518060800160405280848152602001855f016020810190611bc29190614740565b6001600160a01b03168152602001856020016020810190611be39190614740565b6001600160a01b039081168252336020928301526040805184518185015292840151821683820152830151811660608084019190915290920151909116608082015260a0016040516020818303038152906040526040518263ffffffff1660e01b8152600401611c539190613bda565b5f604051808303815f875af1158015611c6e573d5f803e3d5ffd5b505050506040513d5f823e601f3d908101601f19168201604052611c9591908101906147af565b505050565b60608167ffffffffffffffff811115611cb557611cb5613daa565b604051908082528060200260200182016040528015611cde578160200160208202803683370190505b5090505f5b82811015611d4d57611d1b848483818110611d0057611d006146e3565b905060200201355f9081526009602052604090205460ff1690565b15611d45576001828281518110611d3457611d346146e3565b911515602092830291909101909101525b600101611ce3565b5092915050565b611d5f3383836131df565b5050565b600260075403611db55760405162461bcd60e51b815260206004820152601f60248201527f5265656e7472616e637947756172643a207265656e7472616e742063616c6c006044820152606401610d42565b60026007555f818152600a602052604090205460ff1615611e225760405162461bcd60e51b815260206004820152602160248201527f54686520636f6d6d69746d656e7420686173206265656e207375626d697474656044820152601960fa1b6064820152608401610d42565b5f611e2c8261253f565b5f838152600a60205260409020805460ff191660011790559050611e4e61272e565b6040805163ffffffff8316815242602082015283917fa945e51eec50ab98c161376f0db4cf2aeba3ec92755fe2fcd388bdbbb80ff196910160405180910390a250506001600755565b5f815f03611ec657507f2fe54c60d3acabf3343a35b6eba15db4821b340f76e741e2249685ed4899af6c919050565b81600103611ef557507f256a6135777eee2fd26f54b8b7037a25439d5235caee224154186d2b8a52e31d919050565b81600203611f2457507f1151949895e82ab19924de92c40a3d6f7bcb60d92b00504b8199613683f0c200919050565b81600303611f5357507f20121ee811489ff8d61f09fb89e313f14959a0f28bb428a20dba6b0b068b3bdb919050565b81600403611f8257507f0a89ca6ffa14cc462cfedb842c30ed221a50a3d6bf022a6a57dc82ab24c157c9919050565b81600503611fb157507f24ca05c2b5cd42e890d6be94c68d0689f4f21c9cec9c0f13fe41d566dfb54959919050565b81600603611fe057507f1ccb97c932565a92c60156bdba2d08f3bf1377464e025cee765679e604a7315c919050565b8160070361200f57507f19156fbd7d1a8bf5cba8909367de1b624534ebab4f0f79e003bccdd1b182bdb4919050565b8160080361203e57507f261af8c1f0912e465744641409f622d466c3920ac6e5ff37e36604cb11dfff80919050565b8160090361206c57507e58459724ff6ca5a1652fcbc3e82b93895cf08e975b19beab3f54c217d1c007919050565b81600a0361209b57507f1f04ef20dee48d39984d8eabe768a70eafa6310ad20849d4573c3c40c2ad1e30919050565b81600b036120ca57507f1bea3dec5dab51567ce7e200a30f7ba6d4276aeaa53e2686f962a46c66d511e5919050565b81600c036120f957507f0ee0f941e2da4b9e31c3ca97a40d8fa9ce68d97c084177071b3cb46cd3372f0f919050565b81600d0361212857507f1ca9503e8935884501bbaf20be14eb4c46b89772c97b96e3b2ebf3a36a948bbd919050565b81600e0361215757507f133a80e30697cd55d8f7d4b0965b7be24057ba5dc3da898ee2187232446cb108919050565b81600f0361218657507f13e6d8fc88839ed76e182c2a779af5b2c0da9dd18c90427a644f7e148a6253b6919050565b816010036121b557507f1eb16b057a477f4bc8f572ea6bee39561098f78f15bfb3699dcbb7bd8db61854919050565b816011036121e457507f0da2cb16a1ceaabf1c16b838f7a9e3f2a3a3088d9e0a6debaa748114620696ea919050565b8160120361221357507f24a3b3d822420b14b5d8cb6c28a574f01e98ea9e940551d2ebd75cee12649f9d919050565b8160130361224257507f198622acbd783d1b0d9064105b1fc8e4d8889de95c4c519b3f635809fe6afc05919050565b8160140361227157507f29d7ed391256ccc3ea596c86e933b89ff339d25ea8ddced975ae2fe30b5296d4919050565b816015036122a057507f19be59f2f0413ce78c0c3703a3a5451b1d7f39629fa33abd11548a76065b2967919050565b816016036122cf57507f1ff3f61797e538b70e619310d33f2a063e7eb59104e112e95738da1254dc3453919050565b816017036122fe57507f10c16ae9959cf8358980d9dd9616e48228737310a10e2b6b731c1a548f036c48919050565b8160180361232d57507f0ba433a63174a90ac20992e75e3095496812b652685b5e1a2eae0b1bf4e8fcd1919050565b8160190361235c57507f019ddb9df2bc98d987d0dfeca9d2b643deafab8f7036562e627c3667266a044c919050565b81601a0361238b57507f2d3c88b23175c5a5565db928414c66d1912b11acf974b2e644caaac04739ce99919050565b81601b036123ba57507f2eab55f6ae4e66e32c5189eed5c470840863445760f5ed7e7b69b2a62600f354919050565b81601c036123e857507e2df37a2642621802383cf952bf4dd1f32e05433beeb1fd41031fb7eace979d919050565b81601d0361241757507f104aeb41435db66c3e62feccc1d6f5d98d0a0ed75d1374db457cf462e3a1f427919050565b81601e0361244657507f1f3c6fd858e9a7d4b0d1f38e256a09d81d5a5e3c963987e2d4b814cfab7c6ebb919050565b81601f0361247557507f2c7a07d20dff79d01fecedc1134284a8d08436606c93693b67e333f671bf69cc919050565b60405162461bcd60e51b815260206004820152601360248201527f496e646578206f7574206f6620626f756e6473000000000000000000000000006044820152606401610d42565b919050565b336001600160a01b038616811480159061250157506001600160a01b038087165f9081526001602090815260408083209385168352929052205460ff16155b156125325760405163711bec9160e11b81526001600160a01b03808316600483015287166024820152604401610d42565b6115b88686868686613273565b6006546003545f9163ffffffff64010000000090910481169161256491166002614936565b63ffffffff168163ffffffff16036125e45760405162461bcd60e51b815260206004820152603060248201527f4d65726b6c6520747265652069732066756c6c2e204e6f206d6f7265206c656160448201527f7665732063616e206265206164646564000000000000000000000000000000006064820152608401610d42565b80835f80805b60035463ffffffff90811690821610156126a25761260960028661494d565b63ffffffff165f03612645578392506126278163ffffffff16611e97565b63ffffffff82165f9081526004602052604090208590559150612660565b63ffffffff81165f9081526004602052604090205492508391505b61268b7f0000000000000000000000000000000000000000000000000000000000000000848461190a565b9350612698600286614974565b94506001016125ea565b506006545f90601e906126bc9063ffffffff16600161499b565b6126c6919061494d565b6006805463ffffffff191663ffffffff83169081179091555f90815260056020526040902085905590506126fb86600161499b565b6006805463ffffffff929092166401000000000267ffffffff000000001990921691909117905550939695505050505050565b60085434146127a55760405162461bcd60e51b815260206004820152603860248201527f506c656173652073656e6420606d697844656e6f6d696e6174696f6e6020455460448201527f4820616c6f6e672077697468207472616e73616374696f6e00000000000000006064820152608401610d42565b565b6040805163ffffffff831681526001602082015283917fa945e51eec50ab98c161376f0db4cf2aeba3ec92755fe2fcd388bdbbb80ff196910160405180910390a25050565b34156128605760405162461bcd60e51b815260206004820152603560248201527f4d6573736167652076616c756520697320737570706f73656420746f2062652060448201527f7a65726f20666f722045544820696e7374616e636500000000000000000000006064820152608401610d42565b80156128d45760405162461bcd60e51b815260206004820152603460248201527f526566756e642076616c756520697320737570706f73656420746f206265207a60448201527f65726f20666f722045544820696e7374616e63650000000000000000000000006064820152608401610d42565b6001600160a01b03841630146129b4575f846001600160a01b0316836008546128fd91906149b7565b6040515f81818185875af1925050503d805f8114612936576040519150601f19603f3d011682016040523d82523d5f602084013e61293b565b606091505b50509050806129b25760405162461bcd60e51b815260206004820152602560248201527f7061796d656e7420746f205f726563697069656e7420646964206e6f7420676f60448201527f20746872750000000000000000000000000000000000000000000000000000006064820152608401610d42565b505b5f821180156129cb57506001600160a01b03831615155b15612a7d575f836001600160a01b0316836040515f6040518083038185875af1925050503d805f8114612a19576040519150601f19603f3d011682016040523d82523d5f602084013e612a1e565b606091505b5050905080612a7b5760405162461bcd60e51b815260206004820152602360248201527f7061796d656e7420746f205f72656c6179657220646964206e6f7420676f207460448201526268727560e81b6064820152608401610d42565b505b50505050565b6001600160a01b038416612aac57604051632bfa23e760e11b81525f6004820152602401610d42565b6001600160a01b038516612ad457604051626a0d4560e21b81525f6004820152602401610d42565b612a7b85858585856132ff565b612b3b81604051602401612af791815260200190565b60408051601f198184030181529190526020810180517bffffffffffffffffffffffffffffffffffffffffffffffffffffffff1663f82c50f160e01b179052613352565b50565b5f805f612b49613a86565b612b5585870187614a19565b6001600160a01b0390811660c08901521660a087015260808601526060850152604084015260208301528152612b8a8161335b565b612bd65760405162461bcd60e51b815260206004820152600d60248201527f496e76616c69642070726f6f66000000000000000000000000000000000000006044820152606401610d42565b60808101515f908152600960205260408120805460ff19166001179055612c0090309080806127ec565b7f00000000000000000000000000000000000000000000000000000000000000006001600160a01b031663ffbff8a96008546040518263ffffffff1660e01b81526004015f604051808303818588803b158015612c5b575f80fd5b505af1158015612c6d573d5f803e3d5ffd5b50505050505f876020013513612c8f57612c8a602088013561470b565b612c95565b86602001355b60e08201525f612ca6828a8a613505565b60a08301516080840151604080516001600160a01b03909316835260208301919091525f828201525191925030917fe9e508bad6d4c3227e881ca19068f099da81b5164dd6d62b2eaf1e8bc6c349319181900360600190a26315d7892d60e21b9a9099505f98509650505050505050565b80612d8757604051630b0d9c0960e01b81526001600160a01b038681166004830152848116602483015260448201849052851690630b0d9c09906064015b5f604051808303815f87803b158015612d6c575f80fd5b505af1158015612d7e573d5f803e3d5ffd5b50505050612a7b565b836001600160a01b031663156e29f684612db0886001600160a01b03166001600160a01b031690565b6040516001600160e01b031960e085901b1681526001600160a01b0390921660048301526024820152604481018590526064015f604051808303815f87803b158015612dfa575f80fd5b505af1158015612e0c573d5f803e3d5ffd5b505050505050505050565b8015612e7e57836001600160a01b031663f5298aca84612e46886001600160a01b03166001600160a01b031690565b6040516001600160e01b031960e085901b1681526001600160a01b039092166004830152602482015260448101859052606401612d55565b6001600160a01b038516612ef557836001600160a01b03166311da60b4836040518263ffffffff1660e01b815260040160206040518083038185885af1158015612eca573d5f803e3d5ffd5b50505050506040513d601f19601f82011682018060405250810190612eef9190614ada565b50612a7b565b604051632961046560e21b81526001600160a01b03868116600483015285169063a5841194906024015f604051808303815f87803b158015612f35575f80fd5b505af1158015612f47573d5f803e3d5ffd5b505050506001600160a01b0383163014612fd9576040516323b872dd60e01b81526001600160a01b0384811660048301528581166024830152604482018490528616906323b872dd906064016020604051808303815f875af1158015612faf573d5f803e3d5ffd5b505050506040513d601f19601f82011682018060405250810190612fd3919061465b565b5061304b565b60405163a9059cbb60e01b81526001600160a01b0385811660048301526024820184905286169063a9059cbb906044016020604051808303815f875af1158015613025573d5f803e3d5ffd5b505050506040513d601f19601f82011682018060405250810190613049919061465b565b505b836001600160a01b03166311da60b46040518163ffffffff1660e01b81526004016020604051808303815f875af1158015613088573d5f803e3d5ffd5b505050506040513d601f19601f820116820180604052508101906115b89190614ada565b60605f6130bb83850185614af1565b606081015181516020830151929350613100926001600160a01b0316917f0000000000000000000000000000000000000000000000000000000000000000915f612e17565b606081015181516040830151613145926001600160a01b03909116917f000000000000000000000000000000000000000000000000000000000000000091905f612e17565b80516020820151613187916001600160a01b03909116907f00000000000000000000000000000000000000000000000000000000000000009030906001612d17565b805160408201516131c9916001600160a01b03909116907f00000000000000000000000000000000000000000000000000000000000000009030906001612d17565b505060408051602081019091525f815292915050565b6001600160a01b0382166132075760405162ced3e160e81b81525f6004820152602401610d42565b6001600160a01b038381165f81815260016020908152604080832094871680845294825291829020805460ff191686151590811790915591519182527f17307eab39ab6107e8899845ad3d59bd9653f200f220920489ca2b5937696c31910160405180910390a3505050565b6001600160a01b03841661329c57604051632bfa23e760e11b81525f6004820152602401610d42565b6001600160a01b0385166132c457604051626a0d4560e21b81525f6004820152602401610d42565b604080516001808252602082018690528183019081526060820185905260808201909252906132f687878484876132ff565b50505050505050565b61330b85858585613650565b6001600160a01b03841615612a7b5782513390600103613344576020848101519084015161333d83898985858961385f565b50506115b8565b6115b8818787878787613980565b612b3b81613a67565b60808101515f9081526009602052604081205460ff16156133be5760405162461bcd60e51b815260206004820152601360248201527f4e6f746520686173206265656e207370656e74000000000000000000000000006044820152606401610d42565b6133cb8260600151611891565b6134175760405162461bcd60e51b815260206004820152600c60248201527f496e76616c696420726f6f7400000000000000000000000000000000000000006044820152606401610d42565b7f00000000000000000000000000000000000000000000000000000000000000006001600160a01b031663f398789b835f0151846020015185604001516040518060c0016040528088606001515f1c815260200188608001515f1c81526020018860a001516001600160a01b031681526020018860c001516001600160a01b031681526020015f81526020015f8152506040518563ffffffff1660e01b81526004016134c69493929190614b8f565b602060405180830381865afa1580156134e1573d5f803e3d5ffd5b505050506040513d601f19601f82011682018060405250810190610bd9919061465b565b60e08301515f906135196020840184614725565b1561359e5760e085015161355a907f0000000000000000000000000000000000000000000000000000000000000000903090600161178060208a018a614740565b6135997f0000000000000000000000000000000000000000000000000000000000000000308760e0015160018860200160208101906117cd9190614740565b613619565b60e08501516135da907f000000000000000000000000000000000000000000000000000000000000000090309060016117cd60208a018a614740565b6136197f0000000000000000000000000000000000000000000000000000000000000000308760e0015160018860200160208101906117809190614740565b613647613629602085013561470b565b60801b60208501356fffffffffffffffffffffffffffffffff161790565b95945050505050565b805182511461367f5781518151604051635b05999160e01b815260048101929092526024820152604401610d42565b335f5b8351811015613781576020818102858101820151908501909101516001600160a01b03881615613733575f828152602081815260408083206001600160a01b038c1684529091529020548181101561370d576040516303dee4c560e01b81526001600160a01b038a166004820152602481018290526044810183905260648101849052608401610d42565b5f838152602081815260408083206001600160a01b038d16845290915290209082900390555b6001600160a01b03871615613777575f828152602081815260408083206001600160a01b038b16845290915281208054839290613771908490614bed565b90915550505b5050600101613682565b5082516001036138015760208301515f906020840151909150856001600160a01b0316876001600160a01b0316846001600160a01b03167fc3d58168c5ae7397731d063d5bbf3d657854427343f4c083240f7aacaa2d0f6285856040516137f2929190918252602082015260400190565b60405180910390a45050612a7b565b836001600160a01b0316856001600160a01b0316826001600160a01b03167f4a39dc06d4c0dbc64b70af90fd698a233a518aa5d07e595d983b8c0526c8f7fb8686604051613850929190614c00565b60405180910390a45050505050565b6001600160a01b0384163b156115b85760405163f23a6e6160e01b81526001600160a01b0385169063f23a6e61906138a39089908990889088908890600401614c24565b6020604051808303815f875af19250505080156138dd575060408051601f3d908101601f191682019092526138da91810190614c6b565b60015b613944573d80801561390a576040519150601f19603f3d011682016040523d82523d5f602084013e61390f565b606091505b5080515f0361393c57604051632bfa23e760e11b81526001600160a01b0386166004820152602401610d42565b805181602001fd5b6001600160e01b0319811663f23a6e6160e01b146132f657604051632bfa23e760e11b81526001600160a01b0386166004820152602401610d42565b6001600160a01b0384163b156115b85760405163bc197c8160e01b81526001600160a01b0385169063bc197c81906139c49089908990889088908890600401614c86565b6020604051808303815f875af19250505080156139fe575060408051601f3d908101601f191682019092526139fb91810190614c6b565b60015b613a2b573d80801561390a576040519150601f19603f3d011682016040523d82523d5f602084013e61390f565b6001600160e01b0319811663bc197c8160e01b146132f657604051632bfa23e760e11b81526001600160a01b0386166004820152602401610d42565b5f6a636f6e736f6c652e6c6f6790505f80835160208501845afa505050565b604051806101000160405280613a9a613adc565b8152602001613aa7613afa565b8152602001613ab4613adc565b81525f6020820181905260408201819052606082018190526080820181905260a09091015290565b60405180604001604052806002906020820280368337509192915050565b60405180604001604052806002905b613b11613adc565b815260200190600190039081613b095790505090565b6001600160a01b0381168114612b3b575f80fd5b5f8060408385031215613b4c575f80fd5b8235613b5781613b27565b946020939093013593505050565b6001600160e01b031981168114612b3b575f80fd5b5f60208284031215613b8a575f80fd5b8135611b6981613b65565b5f60208284031215613ba5575f80fd5b5035919050565b5f81518084528060208401602086015e5f602082860101526020601f19601f83011685010191505092915050565b602081525f611b696020830184613bac565b5f60a08284031215613bfc575f80fd5b50919050565b5f60808284031215613bfc575f80fd5b5f8083601f840112613c22575f80fd5b50813567ffffffffffffffff811115613c39575f80fd5b602083019150836020828501011115613c50575f80fd5b9250929050565b5f805f805f6101608688031215613c6c575f80fd5b8535613c7781613b27565b9450613c868760208801613bec565b9350613c958760c08801613c02565b925061014086013567ffffffffffffffff811115613cb1575f80fd5b613cbd88828901613c12565b969995985093965092949392505050565b5f805f60608486031215613ce0575f80fd5b8335613ceb81613b27565b95602085013595506040909401359392505050565b8060408101831015610bd9575f80fd5b5f805f805f805f805f6101c08a8c031215613d29575f80fd5b613d338b8b613d00565b985060c08a018b811115613d45575f80fd5b60408b019850613d558c82613d00565b9750506101008a013595506101208a013594506101408a0135613d7781613b27565b93506101608a0135613d8881613b27565b989b979a50959894979396929550929361018081013593506101a00135919050565b634e487b7160e01b5f52604160045260245ffd5b604051601f8201601f1916810167ffffffffffffffff81118282101715613de757613de7613daa565b604052919050565b5f67ffffffffffffffff821115613e0857613e08613daa565b5060051b60200190565b5f82601f830112613e21575f80fd5b8135613e34613e2f82613def565b613dbe565b8082825260208201915060208360051b860101925085831115613e55575f80fd5b602085015b83811015613e72578035835260209283019201613e5a565b5095945050505050565b5f67ffffffffffffffff821115613e9557613e95613daa565b50601f01601f191660200190565b5f82601f830112613eb2575f80fd5b8135613ec0613e2f82613e7c565b818152846020838601011115613ed4575f80fd5b816020850160208301375f918101602001919091529392505050565b5f805f805f60a08688031215613f04575f80fd5b8535613f0f81613b27565b94506020860135613f1f81613b27565b9350604086013567ffffffffffffffff811115613f3a575f80fd5b613f4688828901613e12565b935050606086013567ffffffffffffffff811115613f62575f80fd5b613f6e88828901613e12565b925050608086013567ffffffffffffffff811115613f8a575f80fd5b613f9688828901613ea3565b9150509295509295909350565b5f8060408385031215613fb4575f80fd5b823567ffffffffffffffff811115613fca575f80fd5b8301601f81018513613fda575f80fd5b8035613fe8613e2f82613def565b8082825260208201915060208360051b850101925087831115614009575f80fd5b6020840193505b8284101561403457833561402381613b27565b825260209384019390910190614010565b9450505050602083013567ffffffffffffffff811115614052575f80fd5b61405e85828601613e12565b9150509250929050565b5f8151808452602084019350602083015f5b8281101561409857815186526020958601959091019060010161407a565b5093949350505050565b602081525f611b696020830184614068565b5f60608284031215613bfc575f80fd5b5f805f805f61014086880312156140d9575f80fd5b85356140e481613b27565b94506140f38760208801613bec565b93506141028760c088016140b4565b925061012086013567ffffffffffffffff811115613cb1575f80fd5b5f805f805f805f6101a0888a031215614135575f80fd5b873561414081613b27565b965061414f8960208a01613bec565b955061415e8960c08a01613c02565b94506101408801359350610160880135925061018088013567ffffffffffffffff81111561418a575f80fd5b6141968a828b01613c12565b989b979a50959850939692959293505050565b5f805f8061010085870312156141bd575f80fd5b84356141c881613b27565b93506141d78660208701613bec565b925060c08501356141e781613b27565b915060e0850135600281900b81146141fd575f80fd5b939692955090935050565b5f8060208385031215614219575f80fd5b823567ffffffffffffffff81111561422f575f80fd5b61423b85828601613c12565b90969095509350505050565b5f8060c08385031215614258575f80fd5b6142628484613bec565b9460a0939093013593505050565b5f8060208385031215614281575f80fd5b823567ffffffffffffffff811115614297575f80fd5b8301601f810185136142a7575f80fd5b803567ffffffffffffffff8111156142bd575f80fd5b8560208260051b84010111156142d1575f80fd5b6020919091019590945092505050565b602080825282518282018190525f918401906040840190835b8181101561431a57835115158352602093840193909201916001016142fa565b509095945050505050565b8015158114612b3b575f80fd5b5f8060408385031215614343575f80fd5b823561434e81613b27565b9150602083013561435e81614325565b809150509250929050565b5f805f805f80610160878903121561437f575f80fd5b863561438a81613b27565b95506143998860208901613bec565b94506143a88860c089016140b4565b9350610120870135925061014087013567ffffffffffffffff8111156143cc575f80fd5b6143d889828a01613c12565b979a9699509497509295939492505050565b5f805f805f806101208789031215614400575f80fd5b863561440b81613b27565b955061441a8860208901613bec565b945060c0870135935060e0870135925061010087013567ffffffffffffffff8111156143cc575f80fd5b8151151581526101c081016020830151614462602084018215159052565b506040830151614476604084018215159052565b50606083015161448a606084018215159052565b50608083015161449e608084018215159052565b5060a08301516144b260a084018215159052565b5060c08301516144c660c084018215159052565b5060e08301516144da60e084018215159052565b506101008301516144f061010084018215159052565b5061012083015161450661012084018215159052565b5061014083015161451c61014084018215159052565b5061016083015161453261016084018215159052565b5061018083015161454861018084018215159052565b506101a0830151611d4d6101a084018215159052565b5f805f60e08486031215614570575f80fd5b833561457b81613b27565b925061458a8560208601613bec565b915060c084013561459a81613b27565b809150509250925092565b5f80604083850312156145b6575f80fd5b82356145c181613b27565b9150602083013561435e81613b27565b5f805f805f60a086880312156145e5575f80fd5b85356145f081613b27565b9450602086013561460081613b27565b93506040860135925060608601359150608086013567ffffffffffffffff811115613f8a575f80fd5b600181811c9082168061463d57607f821691505b602082108103613bfc57634e487b7160e01b5f52602260045260245ffd5b5f6020828403121561466b575f80fd5b8151611b6981614325565b805f5b6006811015612a7d578151845260209384019390910190600101614679565b6101c08101604086833760408201855f5b60028110156146ca57604082843760409283019291909101906001016146a9565b50505060408460c0840137613647610100830184614676565b634e487b7160e01b5f52603260045260245ffd5b634e487b7160e01b5f52601160045260245ffd5b5f600160ff1b820161471f5761471f6146f7565b505f0390565b5f60208284031215614735575f80fd5b8135611b6981614325565b5f60208284031215614750575f80fd5b8135611b6981613b27565b5f63ffffffff821680614770576147706146f7565b5f190192915050565b5f806040838503121561478a575f80fd5b505080516020909101519092909150565b634e487b7160e01b5f52601260045260245ffd5b5f602082840312156147bf575f80fd5b815167ffffffffffffffff8111156147d5575f80fd5b8201601f810184136147e5575f80fd5b80516147f3613e2f82613e7c565b818152856020838501011115614807575f80fd5b8160208401602083015e5f91810160200191909152949350505050565b6001815b600184111561485f57808504811115614843576148436146f7565b600184161561485157908102905b60019390931c928002614828565b935093915050565b5f8261487557506001610bd9565b8161488157505f610bd9565b816001811461489757600281146148a1576148d2565b6001915050610bd9565b60ff8411156148b2576148b26146f7565b6001841b915063ffffffff8211156148cc576148cc6146f7565b50610bd9565b5060208310610133831016604e8410600b8410161715614909575081810a63ffffffff811115614904576149046146f7565b610bd9565b61491863ffffffff8484614824565b8063ffffffff0482111561492e5761492e6146f7565b029392505050565b5f611b6963ffffffff841663ffffffff8416614867565b5f63ffffffff8316806149625761496261479b565b8063ffffffff84160691505092915050565b5f63ffffffff8316806149895761498961479b565b8063ffffffff84160491505092915050565b63ffffffff8181168382160190811115610bd957610bd96146f7565b81810381811115610bd957610bd96146f7565b5f82601f8301126149d9575f80fd5b6149e36040613dbe565b8060408401858111156149f4575f80fd5b845b8181101561431a5780358452602093840193016149f6565b80356124bd81613b27565b5f805f805f805f610180888a031215614a30575f80fd5b614a3a89896149ca565b965088605f890112614a4a575f80fd5b6040614a5581613dbe565b8060c08b018c811115614a66575f80fd5b60408c015b81811015614a8c57614a7d8e826149ca565b84526020909301928401614a6b565b50819950614a9a8d826149ca565b98505050506101008901359450506101208801359250614abd6101408901614a0e565b9150614acc6101608901614a0e565b905092959891949750929550565b5f60208284031215614aea575f80fd5b5051919050565b5f6080828403128015614b02575f80fd5b506040516080810167ffffffffffffffff81118282101715614b2657614b26613daa565b604052823581526020830135614b3b81613b27565b60208201526040830135614b4e81613b27565b60408201526060830135614b6181613b27565b60608201529392505050565b805f5b6002811015612a7d578151845260209384019390910190600101614b70565b6101c08101614b9e8287614b6d565b60408201855f5b6002811015614bcf57614bb9838351614b6d565b6040929092019160209190910190600101614ba5565b505050614bdf60c0830185614b6d565b613647610100830184614676565b80820180821115610bd957610bd96146f7565b604081525f614c126040830185614068565b82810360208401526136478185614068565b6001600160a01b03861681526001600160a01b038516602082015283604082015282606082015260a060808201525f614c6060a0830184613bac565b979650505050505050565b5f60208284031215614c7b575f80fd5b8151611b6981613b65565b6001600160a01b03861681526001600160a01b038516602082015260a060408201525f614cb660a0830186614068565b8281036060840152614cc88186614068565b90508281036080840152614cdc8185613bac565b9897505050505050505056fea26469706673582212202771ad7f1084568dd34ed3373bf5a438efe4fd78a3636f87f79f2ee4099f682564736f6c634300081a0033","linkReferences":{}},"methodIdentifiers":{"FIELD_SIZE()":"414a37ba","ROOT_HISTORY_SIZE()":"cd87a3b4","ZERO_VALUE()":"ec732959","addLiquidity((address,address,uint24,int24,address),uint256)":"9e436f57","afterAddLiquidity(address,(address,address,uint24,int24,address),(int24,int24,int256,bytes32),int256,int256,bytes)":"9f063efc","afterDonate(address,(address,address,uint24,int24,address),uint256,uint256,bytes)":"e1b4af69","afterInitialize(address,(address,address,uint24,int24,address),uint160,int24)":"6fe7e6eb","afterRemoveLiquidity(address,(address,address,uint24,int24,address),(int24,int24,int256,bytes32),int256,int256,bytes)":"6c2bbe7e","afterSwap(address,(address,address,uint24,int24,address),(bool,int256,uint160),int256,bytes)":"b47b2fb1","balanceOf(address,uint256)":"00fdd58e","balanceOfBatch(address[],uint256[])":"4e1273f4","beforeAddLiquidity(address,(address,address,uint24,int24,address),(int24,int24,int256,bytes32),bytes)":"259982e5","beforeDonate(address,(address,address,uint24,int24,address),uint256,uint256,bytes)":"b6a8b0fa","beforeInitialize(address,(address,address,uint24,int24,address),uint160)":"dc98354e","beforeRemoveLiquidity(address,(address,address,uint24,int24,address),(int24,int24,int256,bytes32),bytes)":"21d0ee70","beforeSwap(address,(address,address,uint24,int24,address),(bool,int256,uint160),bytes)":"575e24b4","commitments(bytes32)":"839df945","currentRootIndex()":"90eeb02b","denomination()":"8bca6d16","deposit(address,uint256,bytes32)":"26b3293f","deposit(bytes32)":"b214faa5","deposits(address,bytes32)":"2260a9c2","filledSubtrees(uint256)":"f178e47c","getHookPermissions()":"c4e833ce","getLastRoot()":"ba70f757","hashLeftRight(address,bytes32,bytes32)":"8ea3099e","hasher()":"ed33639f","isApprovedForAll(address,address)":"e985e9c5","isKnownRoot(bytes32)":"6d9833e3","isSpent(bytes32)":"e5285dcc","isSpentArray(bytes32[])":"9fa12d0b","levels()":"4ecf518b","nextIndex()":"fc7e9c6f","nullifierHashes(bytes32)":"17cc915c","poolManager()":"dc4c90d3","roots(uint256)":"c2b40ae4","safeBatchTransferFrom(address,address,uint256[],uint256[],bytes)":"2eb2c2d6","safeTransferFrom(address,address,uint256,uint256,bytes)":"f242432a","setApprovalForAll(address,bool)":"a22cb465","supportsInterface(bytes4)":"01ffc9a7","swapper()":"2b3297f9","unlockCallback(bytes)":"91dd7346","uri(uint256)":"0e89341c","verifier()":"2b7ac3f3","withdraw(uint256[2],uint256[2][2],uint256[2],bytes32,bytes32,address,address,uint256,uint256)":"2aa4eeec","zeros(uint256)":"e8295588"},"id":105}